{"abi":[{"inputs":[],"name":"getReceiversBySender","outputs":[{"components":[{"internalType":"address","name":"receiver","type":"address"},{"internalType":"bool","name":"validated","type":"bool"}],"internalType":"struct WalletValidator.Receiver[]","name":"","type":"tuple[]"}],"stateMutability":"view","type":"function"},{"inputs":[{"internalType":"address","name":"_address","type":"address"}],"name":"receiverExists","outputs":[{"internalType":"bool","name":"","type":"bool"}],"stateMutability":"view","type":"function"},{"inputs":[],"name":"receiversCountBySender","outputs":[{"internalType":"uint256","name":"","type":"uint256"}],"stateMutability":"view","type":"function"},{"inputs":[],"name":"sendersCount","outputs":[{"internalType":"uint256","name":"","type":"uint256"}],"stateMutability":"view","type":"function"},{"inputs":[],"name":"sendersWaitingByReceiver","outputs":[{"internalType":"address[]","name":"","type":"address[]"}],"stateMutability":"view","type":"function"},{"inputs":[{"internalType":"address","name":"_address","type":"address"}],"name":"step1","outputs":[],"stateMutability":"payable","type":"function"},{"inputs":[{"internalType":"address","name":"_address","type":"address"}],"name":"step2","outputs":[],"stateMutability":"payable","type":"function"},{"inputs":[{"internalType":"address","name":"_address","type":"address"}],"name":"walletAlreadyValidated","outputs":[{"internalType":"bool","name":"","type":"bool"}],"stateMutability":"view","type":"function"},{"inputs":[{"internalType":"address","name":"_address","type":"address"}],"name":"walletValidatedBySender","outputs":[{"internalType":"bool","name":"","type":"bool"}],"stateMutability":"view","type":"function"}],"devdoc":{"author":"DeTask team","kind":"dev","methods":{"getReceiversBySender()":{"details":"Get the total list of receiver’s address from the mapping `senders`. Create a new array with the total counted. Add the receiver's info to the array and return it","returns":{"_0":"The list of receiver’s array `Receiver[]`"}},"receiverExists(address)":{"details":"Get the receivers list from the mapping `senders`. Loop the list to check if the receive belongs to the list","params":{"_address":"receiver's address that will be verified"}},"receiversCountBySender()":{"details":"Get the array’s length form the mapping `senders` by sender","returns":{"_0":"Total of receivers"}},"sendersCount()":{"details":"Get the numeric number from the field `totalSenders`","returns":{"_0":"total senders of the contract"}},"sendersWaitingByReceiver()":{"details":"Get the list of sender’s address from the mapping `waitReceive`","returns":{"_0":"The list of sender’s the receive need to validate"}},"step1(address)":{"details":"Check if the receiver’s address was already on the list with the function `receiverExists`. Add the receiver’s address to the sender’s list `senders` with the unconfirmed fields `validated` and increment the number `totalSenders` in the contract. Add the receiver’s address to the waiting receiver list`waitReceive`. Transfer the money received in the function to the receiver’s address","params":{"_address":"is the receiver’s wallet address that will get the money"}},"step2(address)":{"details":"Check if the sender’s address sent money to the receiver calling the function `senderExists`. Get the receiver’s record from the list `senders`. Update the `validated` field to true to confirm that the receiver sent the money back. Remove and reorganize the receiver address from the array `waitReceive`. Transfer the money to the sender","params":{"_address":"sender's address that will receive the money back"}},"walletAlreadyValidated(address)":{"details":"Get the boolean field from the mapping `addressValidated` param _address is a receiver’s wallet address","returns":{"_0":"True if the receiver’s wallet address was already validated"}},"walletValidatedBySender(address)":{"details":"Get the boolean field from the mapping `senders` receiver's array","returns":{"_0":"True if the receiver’s wallet address was already validated"}}},"title":"Used to check and validate wallet addresses before transfer task’s money","version":1},"evm":{"assembly":"    /* \"WalletValidator.sol\":171:8704  contract WalletValidator{... */\n  mstore(0x40, 0x80)\n  callvalue\n  dup1\n  iszero\n  tag_1\n  jumpi\n  0x00\n  dup1\n  revert\ntag_1:\n  pop\n  dataSize(sub_0)\n  dup1\n  dataOffset(sub_0)\n  0x00\n  codecopy\n  0x00\n  return\nstop\n\nsub_0: assembly {\n        /* \"WalletValidator.sol\":171:8704  contract WalletValidator{... */\n      mstore(0x40, 0x80)\n      jumpi(tag_1, lt(calldatasize, 0x04))\n      shr(0xe0, calldataload(0x00))\n      dup1\n      0x9c6d55c3\n      gt\n      tag_11\n      jumpi\n      dup1\n      0x9c6d55c3\n      eq\n      tag_6\n      jumpi\n      dup1\n      0xa33d84de\n      eq\n      tag_7\n      jumpi\n      dup1\n      0xaeb97d59\n      eq\n      tag_8\n      jumpi\n      dup1\n      0xbe1f7419\n      eq\n      tag_9\n      jumpi\n      dup1\n      0xea78f849\n      eq\n      tag_10\n      jumpi\n      jump(tag_1)\n    tag_11:\n      dup1\n      0x5f080263\n      eq\n      tag_2\n      jumpi\n      dup1\n      0x5f636573\n      eq\n      tag_3\n      jumpi\n      dup1\n      0x7d6537c2\n      eq\n      tag_4\n      jumpi\n      dup1\n      0x9b2fb458\n      eq\n      tag_5\n      jumpi\n    tag_1:\n      0x00\n      dup1\n      revert\n        /* \"WalletValidator.sol\":6433:6582  function receiversCountBySender() public view returns(uint){... */\n    tag_2:\n      callvalue\n      dup1\n      iszero\n      tag_12\n      jumpi\n      0x00\n      dup1\n      revert\n    tag_12:\n      pop\n      tag_13\n      tag_14\n      jump\t// in\n    tag_13:\n      mload(0x40)\n      tag_15\n      swap2\n      swap1\n      tag_16\n      jump\t// in\n    tag_15:\n      mload(0x40)\n      dup1\n      swap2\n      sub\n      swap1\n      return\n        /* \"WalletValidator.sol\":1734:2550  function step1(address _address) public payable {... */\n    tag_3:\n      tag_17\n      0x04\n      dup1\n      calldatasize\n      sub\n      dup2\n      add\n      swap1\n      tag_18\n      swap2\n      swap1\n      tag_19\n      jump\t// in\n    tag_18:\n      tag_20\n      jump\t// in\n    tag_17:\n      stop\n        /* \"WalletValidator.sol\":8342:8701  function getReceiversBySender() public view returns(Receiver[] memory){... */\n    tag_4:\n      callvalue\n      dup1\n      iszero\n      tag_21\n      jumpi\n      0x00\n      dup1\n      revert\n    tag_21:\n      pop\n      tag_22\n      tag_23\n      jump\t// in\n    tag_22:\n      mload(0x40)\n      tag_24\n      swap2\n      swap1\n      tag_25\n      jump\t// in\n    tag_24:\n      mload(0x40)\n      dup1\n      swap2\n      sub\n      swap1\n      return\n        /* \"WalletValidator.sol\":5098:5397  function receiverExists(address _address) public view returns(bool){... */\n    tag_5:\n      callvalue\n      dup1\n      iszero\n      tag_26\n      jumpi\n      0x00\n      dup1\n      revert\n    tag_26:\n      pop\n      tag_27\n      0x04\n      dup1\n      calldatasize\n      sub\n      dup2\n      add\n      swap1\n      tag_28\n      swap2\n      swap1\n      tag_19\n      jump\t// in\n    tag_28:\n      tag_29\n      jump\t// in\n    tag_27:\n      mload(0x40)\n      tag_30\n      swap2\n      swap1\n      tag_31\n      jump\t// in\n    tag_30:\n      mload(0x40)\n      dup1\n      swap2\n      sub\n      swap1\n      return\n        /* \"WalletValidator.sol\":3108:4184  function step2(address _address) public payable {... */\n    tag_6:\n      tag_32\n      0x04\n      dup1\n      calldatasize\n      sub\n      dup2\n      add\n      swap1\n      tag_33\n      swap2\n      swap1\n      tag_19\n      jump\t// in\n    tag_33:\n      tag_34\n      jump\t// in\n    tag_32:\n      stop\n        /* \"WalletValidator.sol\":6163:6248  function sendersCount() public view returns(uint){... */\n    tag_7:\n      callvalue\n      dup1\n      iszero\n      tag_35\n      jumpi\n      0x00\n      dup1\n      revert\n    tag_35:\n      pop\n      tag_36\n      tag_37\n      jump\t// in\n    tag_36:\n      mload(0x40)\n      tag_38\n      swap2\n      swap1\n      tag_16\n      jump\t// in\n    tag_38:\n      mload(0x40)\n      dup1\n      swap2\n      sub\n      swap1\n      return\n        /* \"WalletValidator.sol\":7857:8015  function sendersWaitingByReceiver() public view returns(address[] memory){... */\n    tag_8:\n      callvalue\n      dup1\n      iszero\n      tag_39\n      jumpi\n      0x00\n      dup1\n      revert\n    tag_39:\n      pop\n      tag_40\n      tag_41\n      jump\t// in\n    tag_40:\n      mload(0x40)\n      tag_42\n      swap2\n      swap1\n      tag_43\n      jump\t// in\n    tag_42:\n      mload(0x40)\n      dup1\n      swap2\n      sub\n      swap1\n      return\n        /* \"WalletValidator.sol\":6846:7167  function walletValidatedBySender(address _address) public view returns(bool){... */\n    tag_9:\n      callvalue\n      dup1\n      iszero\n      tag_44\n      jumpi\n      0x00\n      dup1\n      revert\n    tag_44:\n      pop\n      tag_45\n      0x04\n      dup1\n      calldatasize\n      sub\n      dup2\n      add\n      swap1\n      tag_46\n      swap2\n      swap1\n      tag_19\n      jump\t// in\n    tag_46:\n      tag_47\n      jump\t// in\n    tag_45:\n      mload(0x40)\n      tag_48\n      swap2\n      swap1\n      tag_31\n      jump\t// in\n    tag_48:\n      mload(0x40)\n      dup1\n      swap2\n      sub\n      swap1\n      return\n        /* \"WalletValidator.sol\":7479:7604  function walletAlreadyValidated(address _address) public view returns(bool){... */\n    tag_10:\n      callvalue\n      dup1\n      iszero\n      tag_49\n      jumpi\n      0x00\n      dup1\n      revert\n    tag_49:\n      pop\n      tag_50\n      0x04\n      dup1\n      calldatasize\n      sub\n      dup2\n      add\n      swap1\n      tag_51\n      swap2\n      swap1\n      tag_19\n      jump\t// in\n    tag_51:\n      tag_52\n      jump\t// in\n    tag_50:\n      mload(0x40)\n      tag_53\n      swap2\n      swap1\n      tag_31\n      jump\t// in\n    tag_53:\n      mload(0x40)\n      dup1\n      swap2\n      sub\n      swap1\n      return\n        /* \"WalletValidator.sol\":6433:6582  function receiversCountBySender() public view returns(uint){... */\n    tag_14:\n        /* \"WalletValidator.sol\":6487:6491  uint */\n      0x00\n        /* \"WalletValidator.sol\":6502:6525  Receiver[] storage list */\n      dup1\n        /* \"WalletValidator.sol\":6528:6535  senders */\n      0x01\n        /* \"WalletValidator.sol\":6528:6547  senders[msg.sender] */\n      0x00\n        /* \"WalletValidator.sol\":6536:6546  msg.sender */\n      caller\n        /* \"WalletValidator.sol\":6528:6547  senders[msg.sender] */\n      0xffffffffffffffffffffffffffffffffffffffff\n      and\n      0xffffffffffffffffffffffffffffffffffffffff\n      and\n      dup2\n      mstore\n      0x20\n      add\n      swap1\n      dup2\n      mstore\n      0x20\n      add\n      0x00\n      keccak256\n        /* \"WalletValidator.sol\":6502:6547  Receiver[] storage list = senders[msg.sender] */\n      swap1\n      pop\n        /* \"WalletValidator.sol\":6564:6568  list */\n      dup1\n        /* \"WalletValidator.sol\":6564:6575  list.length */\n      dup1\n      sload\n      swap1\n      pop\n        /* \"WalletValidator.sol\":6557:6575  return list.length */\n      swap2\n      pop\n      pop\n        /* \"WalletValidator.sol\":6433:6582  function receiversCountBySender() public view returns(uint){... */\n      swap1\n      jump\t// out\n        /* \"WalletValidator.sol\":1734:2550  function step1(address _address) public payable {... */\n    tag_20:\n        /* \"WalletValidator.sol\":1814:1822  _address */\n      dup1\n        /* \"WalletValidator.sol\":1800:1822  msg.sender != _address */\n      0xffffffffffffffffffffffffffffffffffffffff\n      and\n        /* \"WalletValidator.sol\":1800:1810  msg.sender */\n      caller\n        /* \"WalletValidator.sol\":1800:1822  msg.sender != _address */\n      0xffffffffffffffffffffffffffffffffffffffff\n      and\n      sub\n        /* \"WalletValidator.sol\":1792:1862  require(msg.sender != _address, \"You canno validate your own wallet!\") */\n      tag_56\n      jumpi\n      mload(0x40)\n      0x08c379a000000000000000000000000000000000000000000000000000000000\n      dup2\n      mstore\n      0x04\n      add\n      tag_57\n      swap1\n      tag_58\n      jump\t// in\n    tag_57:\n      mload(0x40)\n      dup1\n      swap2\n      sub\n      swap1\n      revert\n    tag_56:\n        /* \"WalletValidator.sol\":1872:1883  bool exists */\n      0x00\n        /* \"WalletValidator.sol\":1886:1910  receiverExists(_address) */\n      tag_59\n        /* \"WalletValidator.sol\":1901:1909  _address */\n      dup3\n        /* \"WalletValidator.sol\":1886:1900  receiverExists */\n      tag_29\n        /* \"WalletValidator.sol\":1886:1910  receiverExists(_address) */\n      jump\t// in\n    tag_59:\n        /* \"WalletValidator.sol\":1872:1910  bool exists = receiverExists(_address) */\n      swap1\n      pop\n        /* \"WalletValidator.sol\":1934:1939  false */\n      0x00\n        /* \"WalletValidator.sol\":1924:1939  exists == false */\n      iszero\n      iszero\n        /* \"WalletValidator.sol\":1924:1930  exists */\n      dup2\n        /* \"WalletValidator.sol\":1924:1939  exists == false */\n      iszero\n      iszero\n      sub\n        /* \"WalletValidator.sol\":1920:2544  if (exists == false){... */\n      tag_60\n      jumpi\n        /* \"WalletValidator.sol\":1974:1975  0 */\n      0x00\n        /* \"WalletValidator.sol\":1962:1971  msg.value */\n      callvalue\n        /* \"WalletValidator.sol\":1962:1975  msg.value > 0 */\n      gt\n        /* \"WalletValidator.sol\":1954:2006  require(msg.value > 0, \"No money to be transfered!\") */\n      tag_61\n      jumpi\n      mload(0x40)\n      0x08c379a000000000000000000000000000000000000000000000000000000000\n      dup2\n      mstore\n      0x04\n      add\n      tag_62\n      swap1\n      tag_63\n      jump\t// in\n    tag_62:\n      mload(0x40)\n      dup1\n      swap2\n      sub\n      swap1\n      revert\n    tag_61:\n        /* \"WalletValidator.sol\":2020:2048  Receiver storage newReceiver */\n      0x00\n        /* \"WalletValidator.sol\":2051:2058  senders */\n      0x01\n        /* \"WalletValidator.sol\":2051:2070  senders[msg.sender] */\n      0x00\n        /* \"WalletValidator.sol\":2059:2069  msg.sender */\n      caller\n        /* \"WalletValidator.sol\":2051:2070  senders[msg.sender] */\n      0xffffffffffffffffffffffffffffffffffffffff\n      and\n      0xffffffffffffffffffffffffffffffffffffffff\n      and\n      dup2\n      mstore\n      0x20\n      add\n      swap1\n      dup2\n      mstore\n      0x20\n      add\n      0x00\n      keccak256\n        /* \"WalletValidator.sol\":2051:2077  senders[msg.sender].push() */\n      0x01\n      dup2\n      0x01\n      dup2\n      sload\n      add\n      dup1\n      dup3\n      sstore\n      dup1\n      swap2\n      pop\n      pop\n      sub\n      swap1\n      0x00\n      mstore\n      keccak256(0x00, 0x20)\n      add\n        /* \"WalletValidator.sol\":2020:2077  Receiver storage newReceiver = senders[msg.sender].push() */\n      swap1\n      pop\n        /* \"WalletValidator.sol\":2125:2126  1 */\n      0x01\n        /* \"WalletValidator.sol\":2095:2102  senders */\n      dup1\n        /* \"WalletValidator.sol\":2095:2114  senders[msg.sender] */\n      0x00\n        /* \"WalletValidator.sol\":2103:2113  msg.sender */\n      caller\n        /* \"WalletValidator.sol\":2095:2114  senders[msg.sender] */\n      0xffffffffffffffffffffffffffffffffffffffff\n      and\n      0xffffffffffffffffffffffffffffffffffffffff\n      and\n      dup2\n      mstore\n      0x20\n      add\n      swap1\n      dup2\n      mstore\n      0x20\n      add\n      0x00\n      keccak256\n        /* \"WalletValidator.sol\":2095:2121  senders[msg.sender].length */\n      dup1\n      sload\n      swap1\n      pop\n        /* \"WalletValidator.sol\":2095:2126  senders[msg.sender].length == 1 */\n      sub\n        /* \"WalletValidator.sol\":2091:2174  if (senders[msg.sender].length == 1){... */\n      tag_65\n      jumpi\n        /* \"WalletValidator.sol\":2145:2157  totalSenders */\n      0x03\n      0x00\n        /* \"WalletValidator.sol\":2145:2159  totalSenders++ */\n      dup2\n      sload\n      dup1\n      swap3\n      swap2\n      swap1\n      tag_66\n      swap1\n      tag_67\n      jump\t// in\n    tag_66:\n      swap2\n      swap1\n      pop\n      sstore\n      pop\n        /* \"WalletValidator.sol\":2091:2174  if (senders[msg.sender].length == 1){... */\n    tag_65:\n        /* \"WalletValidator.sol\":2210:2218  _address */\n      dup3\n        /* \"WalletValidator.sol\":2187:2198  newReceiver */\n      dup2\n        /* \"WalletValidator.sol\":2187:2207  newReceiver.receiver */\n      0x00\n      add\n      0x00\n        /* \"WalletValidator.sol\":2187:2218  newReceiver.receiver = _address */\n      0x0100\n      exp\n      dup2\n      sload\n      dup2\n      0xffffffffffffffffffffffffffffffffffffffff\n      mul\n      not\n      and\n      swap1\n      dup4\n      0xffffffffffffffffffffffffffffffffffffffff\n      and\n      mul\n      or\n      swap1\n      sstore\n      pop\n        /* \"WalletValidator.sol\":2256:2261  false */\n      0x00\n        /* \"WalletValidator.sol\":2232:2243  newReceiver */\n      dup2\n        /* \"WalletValidator.sol\":2232:2253  newReceiver.validated */\n      0x00\n      add\n      0x14\n        /* \"WalletValidator.sol\":2232:2261  newReceiver.validated = false */\n      0x0100\n      exp\n      dup2\n      sload\n      dup2\n      0xff\n      mul\n      not\n      and\n      swap1\n      dup4\n      iszero\n      iszero\n      mul\n      or\n      swap1\n      sstore\n      pop\n        /* \"WalletValidator.sol\":2275:2286  waitReceive */\n      0x00\n        /* \"WalletValidator.sol\":2275:2296  waitReceive[_address] */\n      dup1\n        /* \"WalletValidator.sol\":2287:2295  _address */\n      dup5\n        /* \"WalletValidator.sol\":2275:2296  waitReceive[_address] */\n      0xffffffffffffffffffffffffffffffffffffffff\n      and\n      0xffffffffffffffffffffffffffffffffffffffff\n      and\n      dup2\n      mstore\n      0x20\n      add\n      swap1\n      dup2\n      mstore\n      0x20\n      add\n      0x00\n      keccak256\n        /* \"WalletValidator.sol\":2302:2312  msg.sender */\n      caller\n        /* \"WalletValidator.sol\":2275:2313  waitReceive[_address].push(msg.sender) */\n      swap1\n      dup1\n      0x01\n      dup2\n      sload\n      add\n      dup1\n      dup3\n      sstore\n      dup1\n      swap2\n      pop\n      pop\n      0x01\n      swap1\n      sub\n      swap1\n      0x00\n      mstore\n      keccak256(0x00, 0x20)\n      add\n      0x00\n      swap1\n      swap2\n      swap1\n      swap2\n      swap1\n      swap2\n      0x0100\n      exp\n      dup2\n      sload\n      dup2\n      0xffffffffffffffffffffffffffffffffffffffff\n      mul\n      not\n      and\n      swap1\n      dup4\n      0xffffffffffffffffffffffffffffffffffffffff\n      and\n      mul\n      or\n      swap1\n      sstore\n      pop\n        /* \"WalletValidator.sol\":2328:2340  bool success */\n      0x00\n        /* \"WalletValidator.sol\":2354:2362  _address */\n      dup4\n        /* \"WalletValidator.sol\":2346:2368  payable(_address).call */\n      0xffffffffffffffffffffffffffffffffffffffff\n      and\n        /* \"WalletValidator.sol\":2376:2385  msg.value */\n      callvalue\n        /* \"WalletValidator.sol\":2346:2390  payable(_address).call{value: msg.value}(\"\") */\n      mload(0x40)\n      tag_69\n      swap1\n      tag_70\n      jump\t// in\n    tag_69:\n      0x00\n      mload(0x40)\n      dup1\n      dup4\n      sub\n      dup2\n      dup6\n      dup8\n      gas\n      call\n      swap3\n      pop\n      pop\n      pop\n      returndatasize\n      dup1\n      0x00\n      dup2\n      eq\n      tag_73\n      jumpi\n      mload(0x40)\n      swap2\n      pop\n      and(add(returndatasize, 0x3f), not(0x1f))\n      dup3\n      add\n      0x40\n      mstore\n      returndatasize\n      dup3\n      mstore\n      returndatasize\n      0x00\n      0x20\n      dup5\n      add\n      returndatacopy\n      jump(tag_72)\n    tag_73:\n      0x60\n      swap2\n      pop\n    tag_72:\n      pop\n        /* \"WalletValidator.sol\":2327:2390  (bool success, ) = payable(_address).call{value: msg.value}(\"\") */\n      pop\n      swap1\n      pop\n        /* \"WalletValidator.sol\":2412:2419  success */\n      dup1\n        /* \"WalletValidator.sol\":2404:2440  require(success, \"Transfer failed.\") */\n      tag_74\n      jumpi\n      mload(0x40)\n      0x08c379a000000000000000000000000000000000000000000000000000000000\n      dup2\n      mstore\n      0x04\n      add\n      tag_75\n      swap1\n      tag_76\n      jump\t// in\n    tag_75:\n      mload(0x40)\n      dup1\n      swap2\n      sub\n      swap1\n      revert\n    tag_74:\n        /* \"WalletValidator.sol\":1940:2451  {... */\n      pop\n      pop\n        /* \"WalletValidator.sol\":1920:2544  if (exists == false){... */\n      jump(tag_77)\n    tag_60:\n        /* \"WalletValidator.sol\":2487:2492  false */\n      0x00\n        /* \"WalletValidator.sol\":2479:2533  require(false, \"Receiver already request validation!\") */\n      tag_78\n      jumpi\n      mload(0x40)\n      0x08c379a000000000000000000000000000000000000000000000000000000000\n      dup2\n      mstore\n      0x04\n      add\n      tag_79\n      swap1\n      tag_80\n      jump\t// in\n    tag_79:\n      mload(0x40)\n      dup1\n      swap2\n      sub\n      swap1\n      revert\n    tag_78:\n        /* \"WalletValidator.sol\":1920:2544  if (exists == false){... */\n    tag_77:\n        /* \"WalletValidator.sol\":1782:2550  {... */\n      pop\n        /* \"WalletValidator.sol\":1734:2550  function step1(address _address) public payable {... */\n      pop\n      jump\t// out\n        /* \"WalletValidator.sol\":8342:8701  function getReceiversBySender() public view returns(Receiver[] memory){... */\n    tag_23:\n        /* \"WalletValidator.sol\":8394:8411  Receiver[] memory */\n      0x60\n        /* \"WalletValidator.sol\":8422:8432  uint count */\n      0x00\n        /* \"WalletValidator.sol\":8435:8442  senders */\n      0x01\n        /* \"WalletValidator.sol\":8435:8454  senders[msg.sender] */\n      0x00\n        /* \"WalletValidator.sol\":8443:8453  msg.sender */\n      caller\n        /* \"WalletValidator.sol\":8435:8454  senders[msg.sender] */\n      0xffffffffffffffffffffffffffffffffffffffff\n      and\n      0xffffffffffffffffffffffffffffffffffffffff\n      and\n      dup2\n      mstore\n      0x20\n      add\n      swap1\n      dup2\n      mstore\n      0x20\n      add\n      0x00\n      keccak256\n        /* \"WalletValidator.sol\":8435:8461  senders[msg.sender].length */\n      dup1\n      sload\n      swap1\n      pop\n        /* \"WalletValidator.sol\":8422:8461  uint count = senders[msg.sender].length */\n      swap1\n      pop\n        /* \"WalletValidator.sol\":8471:8495  Receiver[] memory result */\n      0x00\n        /* \"WalletValidator.sol\":8513:8518  count */\n      dup2\n        /* \"WalletValidator.sol\":8498:8519  new Receiver[](count) */\n      0xffffffffffffffff\n      dup2\n      gt\n      iszero\n      tag_82\n      jumpi\n      tag_83\n      tag_84\n      jump\t// in\n    tag_83:\n    tag_82:\n      mload(0x40)\n      swap1\n      dup1\n      dup3\n      mstore\n      dup1\n      0x20\n      mul\n      0x20\n      add\n      dup3\n      add\n      0x40\n      mstore\n      dup1\n      iszero\n      tag_85\n      jumpi\n      dup2\n      0x20\n      add\n    tag_86:\n      tag_87\n      tag_88\n      jump\t// in\n    tag_87:\n      dup2\n      mstore\n      0x20\n      add\n      swap1\n      0x01\n      swap1\n      sub\n      swap1\n      dup2\n      tag_86\n      jumpi\n      swap1\n      pop\n    tag_85:\n      pop\n        /* \"WalletValidator.sol\":8471:8519  Receiver[] memory result = new Receiver[](count) */\n      swap1\n      pop\n        /* \"WalletValidator.sol\":8535:8541  uint i */\n      0x00\n        /* \"WalletValidator.sol\":8530:8672  for (uint i = 0; i < count; i++) {... */\n    tag_89:\n        /* \"WalletValidator.sol\":8551:8556  count */\n      dup3\n        /* \"WalletValidator.sol\":8547:8548  i */\n      dup2\n        /* \"WalletValidator.sol\":8547:8556  i < count */\n      lt\n        /* \"WalletValidator.sol\":8530:8672  for (uint i = 0; i < count; i++) {... */\n      iszero\n      tag_90\n      jumpi\n        /* \"WalletValidator.sol\":8577:8602  Receiver storage receiver */\n      0x00\n        /* \"WalletValidator.sol\":8605:8612  senders */\n      0x01\n        /* \"WalletValidator.sol\":8605:8624  senders[msg.sender] */\n      0x00\n        /* \"WalletValidator.sol\":8613:8623  msg.sender */\n      caller\n        /* \"WalletValidator.sol\":8605:8624  senders[msg.sender] */\n      0xffffffffffffffffffffffffffffffffffffffff\n      and\n      0xffffffffffffffffffffffffffffffffffffffff\n      and\n      dup2\n      mstore\n      0x20\n      add\n      swap1\n      dup2\n      mstore\n      0x20\n      add\n      0x00\n      keccak256\n        /* \"WalletValidator.sol\":8625:8626  i */\n      dup3\n        /* \"WalletValidator.sol\":8605:8627  senders[msg.sender][i] */\n      dup2\n      sload\n      dup2\n      lt\n      tag_92\n      jumpi\n      tag_93\n      tag_94\n      jump\t// in\n    tag_93:\n    tag_92:\n      swap1\n      0x00\n      mstore\n      keccak256(0x00, 0x20)\n      add\n        /* \"WalletValidator.sol\":8577:8627  Receiver storage receiver = senders[msg.sender][i] */\n      swap1\n      pop\n        /* \"WalletValidator.sol\":8653:8661  receiver */\n      dup1\n        /* \"WalletValidator.sol\":8641:8661  result[i] = receiver */\n      mload(0x40)\n      dup1\n      0x40\n      add\n      0x40\n      mstore\n      swap1\n      dup2\n      0x00\n      dup3\n      add\n      0x00\n      swap1\n      sload\n      swap1\n      0x0100\n      exp\n      swap1\n      div\n      0xffffffffffffffffffffffffffffffffffffffff\n      and\n      0xffffffffffffffffffffffffffffffffffffffff\n      and\n      0xffffffffffffffffffffffffffffffffffffffff\n      and\n      dup2\n      mstore\n      0x20\n      add\n      0x00\n      dup3\n      add\n      0x14\n      swap1\n      sload\n      swap1\n      0x0100\n      exp\n      swap1\n      div\n      0xff\n      and\n      iszero\n      iszero\n      iszero\n      iszero\n      dup2\n      mstore\n      pop\n      pop\n        /* \"WalletValidator.sol\":8641:8647  result */\n      dup4\n        /* \"WalletValidator.sol\":8648:8649  i */\n      dup4\n        /* \"WalletValidator.sol\":8641:8650  result[i] */\n      dup2\n      mload\n      dup2\n      lt\n      tag_96\n      jumpi\n      tag_97\n      tag_94\n      jump\t// in\n    tag_97:\n    tag_96:\n      0x20\n      mul\n      0x20\n      add\n      add\n        /* \"WalletValidator.sol\":8641:8661  result[i] = receiver */\n      dup2\n      swap1\n      mstore\n      pop\n        /* \"WalletValidator.sol\":8563:8672  {... */\n      pop\n        /* \"WalletValidator.sol\":8558:8561  i++ */\n      dup1\n      dup1\n      tag_98\n      swap1\n      tag_67\n      jump\t// in\n    tag_98:\n      swap2\n      pop\n      pop\n        /* \"WalletValidator.sol\":8530:8672  for (uint i = 0; i < count; i++) {... */\n      jump(tag_89)\n    tag_90:\n      pop\n        /* \"WalletValidator.sol\":8688:8694  result */\n      dup1\n        /* \"WalletValidator.sol\":8681:8694  return result */\n      swap3\n      pop\n      pop\n      pop\n        /* \"WalletValidator.sol\":8342:8701  function getReceiversBySender() public view returns(Receiver[] memory){... */\n      swap1\n      jump\t// out\n        /* \"WalletValidator.sol\":5098:5397  function receiverExists(address _address) public view returns(bool){... */\n    tag_29:\n        /* \"WalletValidator.sol\":5160:5164  bool */\n      0x00\n        /* \"WalletValidator.sol\":5175:5198  Receiver[] storage list */\n      dup1\n        /* \"WalletValidator.sol\":5201:5208  senders */\n      0x01\n        /* \"WalletValidator.sol\":5201:5220  senders[msg.sender] */\n      0x00\n        /* \"WalletValidator.sol\":5209:5219  msg.sender */\n      caller\n        /* \"WalletValidator.sol\":5201:5220  senders[msg.sender] */\n      0xffffffffffffffffffffffffffffffffffffffff\n      and\n      0xffffffffffffffffffffffffffffffffffffffff\n      and\n      dup2\n      mstore\n      0x20\n      add\n      swap1\n      dup2\n      mstore\n      0x20\n      add\n      0x00\n      keccak256\n        /* \"WalletValidator.sol\":5175:5220  Receiver[] storage list = senders[msg.sender] */\n      swap1\n      pop\n        /* \"WalletValidator.sol\":5235:5241  uint i */\n      0x00\n        /* \"WalletValidator.sol\":5230:5369  for (uint i = 0; i < list.length; i++){... */\n    tag_100:\n        /* \"WalletValidator.sol\":5251:5255  list */\n      dup2\n        /* \"WalletValidator.sol\":5251:5262  list.length */\n      dup1\n      sload\n      swap1\n      pop\n        /* \"WalletValidator.sol\":5247:5248  i */\n      dup2\n        /* \"WalletValidator.sol\":5247:5262  i < list.length */\n      lt\n        /* \"WalletValidator.sol\":5230:5369  for (uint i = 0; i < list.length; i++){... */\n      iszero\n      tag_101\n      jumpi\n        /* \"WalletValidator.sol\":5306:5314  _address */\n      dup4\n        /* \"WalletValidator.sol\":5286:5314  list[i].receiver == _address */\n      0xffffffffffffffffffffffffffffffffffffffff\n      and\n        /* \"WalletValidator.sol\":5286:5290  list */\n      dup3\n        /* \"WalletValidator.sol\":5291:5292  i */\n      dup3\n        /* \"WalletValidator.sol\":5286:5293  list[i] */\n      dup2\n      sload\n      dup2\n      lt\n      tag_103\n      jumpi\n      tag_104\n      tag_94\n      jump\t// in\n    tag_104:\n    tag_103:\n      swap1\n      0x00\n      mstore\n      keccak256(0x00, 0x20)\n      add\n        /* \"WalletValidator.sol\":5286:5302  list[i].receiver */\n      0x00\n      add\n      0x00\n      swap1\n      sload\n      swap1\n      0x0100\n      exp\n      swap1\n      div\n      0xffffffffffffffffffffffffffffffffffffffff\n      and\n        /* \"WalletValidator.sol\":5286:5314  list[i].receiver == _address */\n      0xffffffffffffffffffffffffffffffffffffffff\n      and\n      sub\n        /* \"WalletValidator.sol\":5282:5359  if (list[i].receiver == _address){... */\n      tag_106\n      jumpi\n        /* \"WalletValidator.sol\":5340:5344  true */\n      0x01\n        /* \"WalletValidator.sol\":5333:5344  return true */\n      swap3\n      pop\n      pop\n      pop\n      jump(tag_99)\n        /* \"WalletValidator.sol\":5282:5359  if (list[i].receiver == _address){... */\n    tag_106:\n        /* \"WalletValidator.sol\":5264:5267  i++ */\n      dup1\n      dup1\n      tag_107\n      swap1\n      tag_67\n      jump\t// in\n    tag_107:\n      swap2\n      pop\n      pop\n        /* \"WalletValidator.sol\":5230:5369  for (uint i = 0; i < list.length; i++){... */\n      jump(tag_100)\n    tag_101:\n      pop\n        /* \"WalletValidator.sol\":5385:5390  false */\n      0x00\n        /* \"WalletValidator.sol\":5378:5390  return false */\n      swap2\n      pop\n      pop\n        /* \"WalletValidator.sol\":5098:5397  function receiverExists(address _address) public view returns(bool){... */\n    tag_99:\n      swap2\n      swap1\n      pop\n      jump\t// out\n        /* \"WalletValidator.sol\":3108:4184  function step2(address _address) public payable {... */\n    tag_34:\n        /* \"WalletValidator.sol\":3166:3177  bool exists */\n      0x00\n        /* \"WalletValidator.sol\":3180:3202  senderExists(_address) */\n      tag_109\n        /* \"WalletValidator.sol\":3193:3201  _address */\n      dup3\n        /* \"WalletValidator.sol\":3180:3192  senderExists */\n      tag_110\n        /* \"WalletValidator.sol\":3180:3202  senderExists(_address) */\n      jump\t// in\n    tag_109:\n        /* \"WalletValidator.sol\":3166:3202  bool exists = senderExists(_address) */\n      swap1\n      pop\n        /* \"WalletValidator.sol\":3226:3230  true */\n      0x01\n        /* \"WalletValidator.sol\":3216:3230  exists == true */\n      iszero\n      iszero\n        /* \"WalletValidator.sol\":3216:3222  exists */\n      dup2\n        /* \"WalletValidator.sol\":3216:3230  exists == true */\n      iszero\n      iszero\n      sub\n        /* \"WalletValidator.sol\":3212:4178  if (exists == true){... */\n      tag_111\n      jumpi\n        /* \"WalletValidator.sol\":3265:3266  0 */\n      0x00\n        /* \"WalletValidator.sol\":3253:3262  msg.value */\n      callvalue\n        /* \"WalletValidator.sol\":3253:3266  msg.value > 0 */\n      gt\n        /* \"WalletValidator.sol\":3245:3297  require(msg.value > 0, \"No money to be transfered!\") */\n      tag_112\n      jumpi\n      mload(0x40)\n      0x08c379a000000000000000000000000000000000000000000000000000000000\n      dup2\n      mstore\n      0x04\n      add\n      tag_113\n      swap1\n      tag_63\n      jump\t// in\n    tag_113:\n      mload(0x40)\n      dup1\n      swap2\n      sub\n      swap1\n      revert\n    tag_112:\n        /* \"WalletValidator.sol\":3311:3334  Receiver[] storage list */\n      0x00\n        /* \"WalletValidator.sol\":3337:3344  senders */\n      0x01\n        /* \"WalletValidator.sol\":3337:3354  senders[_address] */\n      0x00\n        /* \"WalletValidator.sol\":3345:3353  _address */\n      dup5\n        /* \"WalletValidator.sol\":3337:3354  senders[_address] */\n      0xffffffffffffffffffffffffffffffffffffffff\n      and\n      0xffffffffffffffffffffffffffffffffffffffff\n      and\n      dup2\n      mstore\n      0x20\n      add\n      swap1\n      dup2\n      mstore\n      0x20\n      add\n      0x00\n      keccak256\n        /* \"WalletValidator.sol\":3311:3354  Receiver[] storage list = senders[_address] */\n      swap1\n      pop\n        /* \"WalletValidator.sol\":3373:3379  uint i */\n      0x00\n        /* \"WalletValidator.sol\":3368:3595  for (uint i = 0; i < list.length; i++){... */\n    tag_114:\n        /* \"WalletValidator.sol\":3389:3393  list */\n      dup2\n        /* \"WalletValidator.sol\":3389:3400  list.length */\n      dup1\n      sload\n      swap1\n      pop\n        /* \"WalletValidator.sol\":3385:3386  i */\n      dup2\n        /* \"WalletValidator.sol\":3385:3400  i < list.length */\n      lt\n        /* \"WalletValidator.sol\":3368:3595  for (uint i = 0; i < list.length; i++){... */\n      iszero\n      tag_115\n      jumpi\n        /* \"WalletValidator.sol\":3448:3458  msg.sender */\n      caller\n        /* \"WalletValidator.sol\":3428:3458  list[i].receiver == msg.sender */\n      0xffffffffffffffffffffffffffffffffffffffff\n      and\n        /* \"WalletValidator.sol\":3428:3432  list */\n      dup3\n        /* \"WalletValidator.sol\":3433:3434  i */\n      dup3\n        /* \"WalletValidator.sol\":3428:3435  list[i] */\n      dup2\n      sload\n      dup2\n      lt\n      tag_117\n      jumpi\n      tag_118\n      tag_94\n      jump\t// in\n    tag_118:\n    tag_117:\n      swap1\n      0x00\n      mstore\n      keccak256(0x00, 0x20)\n      add\n        /* \"WalletValidator.sol\":3428:3444  list[i].receiver */\n      0x00\n      add\n      0x00\n      swap1\n      sload\n      swap1\n      0x0100\n      exp\n      swap1\n      div\n      0xffffffffffffffffffffffffffffffffffffffff\n      and\n        /* \"WalletValidator.sol\":3428:3458  list[i].receiver == msg.sender */\n      0xffffffffffffffffffffffffffffffffffffffff\n      and\n      sub\n        /* \"WalletValidator.sol\":3424:3581  if (list[i].receiver == msg.sender){... */\n      tag_120\n      jumpi\n        /* \"WalletValidator.sol\":3501:3505  true */\n      0x01\n        /* \"WalletValidator.sol\":3481:3485  list */\n      dup3\n        /* \"WalletValidator.sol\":3486:3487  i */\n      dup3\n        /* \"WalletValidator.sol\":3481:3488  list[i] */\n      dup2\n      sload\n      dup2\n      lt\n      tag_121\n      jumpi\n      tag_122\n      tag_94\n      jump\t// in\n    tag_122:\n    tag_121:\n      swap1\n      0x00\n      mstore\n      keccak256(0x00, 0x20)\n      add\n        /* \"WalletValidator.sol\":3481:3498  list[i].validated */\n      0x00\n      add\n      0x14\n        /* \"WalletValidator.sol\":3481:3505  list[i].validated = true */\n      0x0100\n      exp\n      dup2\n      sload\n      dup2\n      0xff\n      mul\n      not\n      and\n      swap1\n      dup4\n      iszero\n      iszero\n      mul\n      or\n      swap1\n      sstore\n      pop\n        /* \"WalletValidator.sol\":3558:3562  true */\n      0x01\n        /* \"WalletValidator.sol\":3527:3543  addressValidated */\n      0x02\n        /* \"WalletValidator.sol\":3527:3555  addressValidated[msg.sender] */\n      0x00\n        /* \"WalletValidator.sol\":3544:3554  msg.sender */\n      caller\n        /* \"WalletValidator.sol\":3527:3555  addressValidated[msg.sender] */\n      0xffffffffffffffffffffffffffffffffffffffff\n      and\n      0xffffffffffffffffffffffffffffffffffffffff\n      and\n      dup2\n      mstore\n      0x20\n      add\n      swap1\n      dup2\n      mstore\n      0x20\n      add\n      0x00\n      keccak256\n      0x00\n        /* \"WalletValidator.sol\":3527:3562  addressValidated[msg.sender] = true */\n      0x0100\n      exp\n      dup2\n      sload\n      dup2\n      0xff\n      mul\n      not\n      and\n      swap1\n      dup4\n      iszero\n      iszero\n      mul\n      or\n      swap1\n      sstore\n      pop\n        /* \"WalletValidator.sol\":3424:3581  if (list[i].receiver == msg.sender){... */\n    tag_120:\n        /* \"WalletValidator.sol\":3402:3405  i++ */\n      dup1\n      dup1\n      tag_124\n      swap1\n      tag_67\n      jump\t// in\n    tag_124:\n      swap2\n      pop\n      pop\n        /* \"WalletValidator.sol\":3368:3595  for (uint i = 0; i < list.length; i++){... */\n      jump(tag_114)\n    tag_115:\n      pop\n        /* \"WalletValidator.sol\":3658:3683  address[] storage waitRec */\n      0x00\n        /* \"WalletValidator.sol\":3686:3697  waitReceive */\n      dup1\n        /* \"WalletValidator.sol\":3686:3709  waitReceive[msg.sender] */\n      0x00\n        /* \"WalletValidator.sol\":3698:3708  msg.sender */\n      caller\n        /* \"WalletValidator.sol\":3686:3709  waitReceive[msg.sender] */\n      0xffffffffffffffffffffffffffffffffffffffff\n      and\n      0xffffffffffffffffffffffffffffffffffffffff\n      and\n      dup2\n      mstore\n      0x20\n      add\n      swap1\n      dup2\n      mstore\n      0x20\n      add\n      0x00\n      keccak256\n        /* \"WalletValidator.sol\":3658:3709  address[] storage waitRec = waitReceive[msg.sender] */\n      swap1\n      pop\n        /* \"WalletValidator.sol\":3723:3733  uint index */\n      0x00\n        /* \"WalletValidator.sol\":3736:3763  waitReceiverIndex(_address) */\n      tag_125\n        /* \"WalletValidator.sol\":3754:3762  _address */\n      dup6\n        /* \"WalletValidator.sol\":3736:3753  waitReceiverIndex */\n      tag_126\n        /* \"WalletValidator.sol\":3736:3763  waitReceiverIndex(_address) */\n      jump\t// in\n    tag_125:\n        /* \"WalletValidator.sol\":3723:3763  uint index = waitReceiverIndex(_address) */\n      swap1\n      pop\n        /* \"WalletValidator.sol\":3782:3788  uint i */\n      0x00\n        /* \"WalletValidator.sol\":3791:3796  index */\n      dup2\n        /* \"WalletValidator.sol\":3782:3796  uint i = index */\n      swap1\n      pop\n        /* \"WalletValidator.sol\":3777:3880  for (uint i = index; i<waitRec.length-1; i++){... */\n    tag_127:\n        /* \"WalletValidator.sol\":3815:3816  1 */\n      0x01\n        /* \"WalletValidator.sol\":3800:3807  waitRec */\n      dup4\n        /* \"WalletValidator.sol\":3800:3814  waitRec.length */\n      dup1\n      sload\n      swap1\n      pop\n        /* \"WalletValidator.sol\":3800:3816  waitRec.length-1 */\n      tag_130\n      swap2\n      swap1\n      tag_131\n      jump\t// in\n    tag_130:\n        /* \"WalletValidator.sol\":3798:3799  i */\n      dup2\n        /* \"WalletValidator.sol\":3798:3816  i<waitRec.length-1 */\n      lt\n        /* \"WalletValidator.sol\":3777:3880  for (uint i = index; i<waitRec.length-1; i++){... */\n      iszero\n      tag_128\n      jumpi\n        /* \"WalletValidator.sol\":3853:3860  waitRec */\n      dup3\n        /* \"WalletValidator.sol\":3863:3864  1 */\n      0x01\n        /* \"WalletValidator.sol\":3861:3862  i */\n      dup3\n        /* \"WalletValidator.sol\":3861:3864  i+1 */\n      tag_132\n      swap2\n      swap1\n      tag_133\n      jump\t// in\n    tag_132:\n        /* \"WalletValidator.sol\":3853:3865  waitRec[i+1] */\n      dup2\n      sload\n      dup2\n      lt\n      tag_134\n      jumpi\n      tag_135\n      tag_94\n      jump\t// in\n    tag_135:\n    tag_134:\n      swap1\n      0x00\n      mstore\n      keccak256(0x00, 0x20)\n      add\n      0x00\n      swap1\n      sload\n      swap1\n      0x0100\n      exp\n      swap1\n      div\n      0xffffffffffffffffffffffffffffffffffffffff\n      and\n        /* \"WalletValidator.sol\":3840:3847  waitRec */\n      dup4\n        /* \"WalletValidator.sol\":3848:3849  i */\n      dup3\n        /* \"WalletValidator.sol\":3840:3850  waitRec[i] */\n      dup2\n      sload\n      dup2\n      lt\n      tag_137\n      jumpi\n      tag_138\n      tag_94\n      jump\t// in\n    tag_138:\n    tag_137:\n      swap1\n      0x00\n      mstore\n      keccak256(0x00, 0x20)\n      add\n      0x00\n        /* \"WalletValidator.sol\":3840:3865  waitRec[i] = waitRec[i+1] */\n      0x0100\n      exp\n      dup2\n      sload\n      dup2\n      0xffffffffffffffffffffffffffffffffffffffff\n      mul\n      not\n      and\n      swap1\n      dup4\n      0xffffffffffffffffffffffffffffffffffffffff\n      and\n      mul\n      or\n      swap1\n      sstore\n      pop\n        /* \"WalletValidator.sol\":3818:3821  i++ */\n      dup1\n      dup1\n      tag_140\n      swap1\n      tag_67\n      jump\t// in\n    tag_140:\n      swap2\n      pop\n      pop\n        /* \"WalletValidator.sol\":3777:3880  for (uint i = index; i<waitRec.length-1; i++){... */\n      jump(tag_127)\n    tag_128:\n      pop\n        /* \"WalletValidator.sol\":3893:3900  waitRec */\n      dup2\n        /* \"WalletValidator.sol\":3893:3906  waitRec.pop() */\n      dup1\n      sload\n      dup1\n      tag_141\n      jumpi\n      tag_142\n      tag_143\n      jump\t// in\n    tag_142:\n    tag_141:\n      0x01\n      swap1\n      sub\n      dup2\n      dup2\n      swap1\n      0x00\n      mstore\n      keccak256(0x00, 0x20)\n      add\n      exp(0x0100, 0x00)\n      dup2\n      sload\n      swap1\n      0xffffffffffffffffffffffffffffffffffffffff\n      mul\n      not\n      and\n      swap1\n      sstore\n      swap1\n      sstore\n        /* \"WalletValidator.sol\":3950:3962  bool success */\n      0x00\n        /* \"WalletValidator.sol\":3976:3984  _address */\n      dup6\n        /* \"WalletValidator.sol\":3968:3990  payable(_address).call */\n      0xffffffffffffffffffffffffffffffffffffffff\n      and\n        /* \"WalletValidator.sol\":3998:4007  msg.value */\n      callvalue\n        /* \"WalletValidator.sol\":3968:4012  payable(_address).call{value: msg.value}(\"\") */\n      mload(0x40)\n      tag_145\n      swap1\n      tag_70\n      jump\t// in\n    tag_145:\n      0x00\n      mload(0x40)\n      dup1\n      dup4\n      sub\n      dup2\n      dup6\n      dup8\n      gas\n      call\n      swap3\n      pop\n      pop\n      pop\n      returndatasize\n      dup1\n      0x00\n      dup2\n      eq\n      tag_148\n      jumpi\n      mload(0x40)\n      swap2\n      pop\n      and(add(returndatasize, 0x3f), not(0x1f))\n      dup3\n      add\n      0x40\n      mstore\n      returndatasize\n      dup3\n      mstore\n      returndatasize\n      0x00\n      0x20\n      dup5\n      add\n      returndatacopy\n      jump(tag_147)\n    tag_148:\n      0x60\n      swap2\n      pop\n    tag_147:\n      pop\n        /* \"WalletValidator.sol\":3949:4012  (bool success, ) = payable(_address).call{value: msg.value}(\"\") */\n      pop\n      swap1\n      pop\n        /* \"WalletValidator.sol\":4034:4041  success */\n      dup1\n        /* \"WalletValidator.sol\":4026:4062  require(success, \"Transfer failed.\") */\n      tag_149\n      jumpi\n      mload(0x40)\n      0x08c379a000000000000000000000000000000000000000000000000000000000\n      dup2\n      mstore\n      0x04\n      add\n      tag_150\n      swap1\n      tag_76\n      jump\t// in\n    tag_150:\n      mload(0x40)\n      dup1\n      swap2\n      sub\n      swap1\n      revert\n    tag_149:\n        /* \"WalletValidator.sol\":3231:4073  {... */\n      pop\n      pop\n      pop\n      pop\n        /* \"WalletValidator.sol\":3212:4178  if (exists == true){... */\n      jump(tag_151)\n    tag_111:\n        /* \"WalletValidator.sol\":4109:4114  false */\n      0x00\n        /* \"WalletValidator.sol\":4101:4167  require(false, \"Sender did not request your wallet verification!\") */\n      tag_152\n      jumpi\n      mload(0x40)\n      0x08c379a000000000000000000000000000000000000000000000000000000000\n      dup2\n      mstore\n      0x04\n      add\n      tag_153\n      swap1\n      tag_154\n      jump\t// in\n    tag_153:\n      mload(0x40)\n      dup1\n      swap2\n      sub\n      swap1\n      revert\n    tag_152:\n        /* \"WalletValidator.sol\":3212:4178  if (exists == true){... */\n    tag_151:\n        /* \"WalletValidator.sol\":3156:4184  {... */\n      pop\n        /* \"WalletValidator.sol\":3108:4184  function step2(address _address) public payable {... */\n      pop\n      jump\t// out\n        /* \"WalletValidator.sol\":6163:6248  function sendersCount() public view returns(uint){... */\n    tag_37:\n        /* \"WalletValidator.sol\":6207:6211  uint */\n      0x00\n        /* \"WalletValidator.sol\":6229:6241  totalSenders */\n      sload(0x03)\n        /* \"WalletValidator.sol\":6222:6241  return totalSenders */\n      swap1\n      pop\n        /* \"WalletValidator.sol\":6163:6248  function sendersCount() public view returns(uint){... */\n      swap1\n      jump\t// out\n        /* \"WalletValidator.sol\":7857:8015  function sendersWaitingByReceiver() public view returns(address[] memory){... */\n    tag_41:\n        /* \"WalletValidator.sol\":7913:7929  address[] memory */\n      0x60\n        /* \"WalletValidator.sol\":7940:7961  address[] memory list */\n      0x00\n        /* \"WalletValidator.sol\":7964:7975  waitReceive */\n      dup1\n        /* \"WalletValidator.sol\":7964:7987  waitReceive[msg.sender] */\n      0x00\n        /* \"WalletValidator.sol\":7976:7986  msg.sender */\n      caller\n        /* \"WalletValidator.sol\":7964:7987  waitReceive[msg.sender] */\n      0xffffffffffffffffffffffffffffffffffffffff\n      and\n      0xffffffffffffffffffffffffffffffffffffffff\n      and\n      dup2\n      mstore\n      0x20\n      add\n      swap1\n      dup2\n      mstore\n      0x20\n      add\n      0x00\n      keccak256\n        /* \"WalletValidator.sol\":7940:7987  address[] memory list = waitReceive[msg.sender] */\n      dup1\n      sload\n      dup1\n      0x20\n      mul\n      0x20\n      add\n      mload(0x40)\n      swap1\n      dup2\n      add\n      0x40\n      mstore\n      dup1\n      swap3\n      swap2\n      swap1\n      dup2\n      dup2\n      mstore\n      0x20\n      add\n      dup3\n      dup1\n      sload\n      dup1\n      iszero\n      tag_157\n      jumpi\n      0x20\n      mul\n      dup3\n      add\n      swap2\n      swap1\n      0x00\n      mstore\n      keccak256(0x00, 0x20)\n      swap1\n    tag_158:\n      dup2\n      0x00\n      swap1\n      sload\n      swap1\n      0x0100\n      exp\n      swap1\n      div\n      0xffffffffffffffffffffffffffffffffffffffff\n      and\n      0xffffffffffffffffffffffffffffffffffffffff\n      and\n      dup2\n      mstore\n      0x20\n      add\n      swap1\n      0x01\n      add\n      swap1\n      dup1\n      dup4\n      gt\n      tag_158\n      jumpi\n    tag_157:\n      pop\n      pop\n      pop\n      pop\n      pop\n      swap1\n      pop\n        /* \"WalletValidator.sol\":8004:8008  list */\n      dup1\n        /* \"WalletValidator.sol\":7997:8008  return list */\n      swap2\n      pop\n      pop\n        /* \"WalletValidator.sol\":7857:8015  function sendersWaitingByReceiver() public view returns(address[] memory){... */\n      swap1\n      jump\t// out\n        /* \"WalletValidator.sol\":6846:7167  function walletValidatedBySender(address _address) public view returns(bool){... */\n    tag_47:\n        /* \"WalletValidator.sol\":6917:6921  bool */\n      0x00\n        /* \"WalletValidator.sol\":6932:6955  Receiver[] storage list */\n      dup1\n        /* \"WalletValidator.sol\":6958:6965  senders */\n      0x01\n        /* \"WalletValidator.sol\":6958:6977  senders[msg.sender] */\n      0x00\n        /* \"WalletValidator.sol\":6966:6976  msg.sender */\n      caller\n        /* \"WalletValidator.sol\":6958:6977  senders[msg.sender] */\n      0xffffffffffffffffffffffffffffffffffffffff\n      and\n      0xffffffffffffffffffffffffffffffffffffffff\n      and\n      dup2\n      mstore\n      0x20\n      add\n      swap1\n      dup2\n      mstore\n      0x20\n      add\n      0x00\n      keccak256\n        /* \"WalletValidator.sol\":6932:6977  Receiver[] storage list = senders[msg.sender] */\n      swap1\n      pop\n        /* \"WalletValidator.sol\":6992:6998  uint i */\n      0x00\n        /* \"WalletValidator.sol\":6987:7139  for (uint i = 0; i < list.length; i++){... */\n    tag_160:\n        /* \"WalletValidator.sol\":7008:7012  list */\n      dup2\n        /* \"WalletValidator.sol\":7008:7019  list.length */\n      dup1\n      sload\n      swap1\n      pop\n        /* \"WalletValidator.sol\":7004:7005  i */\n      dup2\n        /* \"WalletValidator.sol\":7004:7019  i < list.length */\n      lt\n        /* \"WalletValidator.sol\":6987:7139  for (uint i = 0; i < list.length; i++){... */\n      iszero\n      tag_161\n      jumpi\n        /* \"WalletValidator.sol\":7063:7071  _address */\n      dup4\n        /* \"WalletValidator.sol\":7043:7071  list[i].receiver == _address */\n      0xffffffffffffffffffffffffffffffffffffffff\n      and\n        /* \"WalletValidator.sol\":7043:7047  list */\n      dup3\n        /* \"WalletValidator.sol\":7048:7049  i */\n      dup3\n        /* \"WalletValidator.sol\":7043:7050  list[i] */\n      dup2\n      sload\n      dup2\n      lt\n      tag_163\n      jumpi\n      tag_164\n      tag_94\n      jump\t// in\n    tag_164:\n    tag_163:\n      swap1\n      0x00\n      mstore\n      keccak256(0x00, 0x20)\n      add\n        /* \"WalletValidator.sol\":7043:7059  list[i].receiver */\n      0x00\n      add\n      0x00\n      swap1\n      sload\n      swap1\n      0x0100\n      exp\n      swap1\n      div\n      0xffffffffffffffffffffffffffffffffffffffff\n      and\n        /* \"WalletValidator.sol\":7043:7071  list[i].receiver == _address */\n      0xffffffffffffffffffffffffffffffffffffffff\n      and\n      sub\n        /* \"WalletValidator.sol\":7039:7129  if (list[i].receiver == _address){... */\n      tag_166\n      jumpi\n        /* \"WalletValidator.sol\":7097:7101  list */\n      dup2\n        /* \"WalletValidator.sol\":7102:7103  i */\n      dup2\n        /* \"WalletValidator.sol\":7097:7104  list[i] */\n      dup2\n      sload\n      dup2\n      lt\n      tag_167\n      jumpi\n      tag_168\n      tag_94\n      jump\t// in\n    tag_168:\n    tag_167:\n      swap1\n      0x00\n      mstore\n      keccak256(0x00, 0x20)\n      add\n        /* \"WalletValidator.sol\":7097:7114  list[i].validated */\n      0x00\n      add\n      0x14\n      swap1\n      sload\n      swap1\n      0x0100\n      exp\n      swap1\n      div\n      0xff\n      and\n        /* \"WalletValidator.sol\":7090:7114  return list[i].validated */\n      swap3\n      pop\n      pop\n      pop\n      jump(tag_159)\n        /* \"WalletValidator.sol\":7039:7129  if (list[i].receiver == _address){... */\n    tag_166:\n        /* \"WalletValidator.sol\":7021:7024  i++ */\n      dup1\n      dup1\n      tag_170\n      swap1\n      tag_67\n      jump\t// in\n    tag_170:\n      swap2\n      pop\n      pop\n        /* \"WalletValidator.sol\":6987:7139  for (uint i = 0; i < list.length; i++){... */\n      jump(tag_160)\n    tag_161:\n      pop\n        /* \"WalletValidator.sol\":7155:7160  false */\n      0x00\n        /* \"WalletValidator.sol\":7148:7160  return false */\n      swap2\n      pop\n      pop\n        /* \"WalletValidator.sol\":6846:7167  function walletValidatedBySender(address _address) public view returns(bool){... */\n    tag_159:\n      swap2\n      swap1\n      pop\n      jump\t// out\n        /* \"WalletValidator.sol\":7479:7604  function walletAlreadyValidated(address _address) public view returns(bool){... */\n    tag_52:\n        /* \"WalletValidator.sol\":7549:7553  bool */\n      0x00\n        /* \"WalletValidator.sol\":7571:7587  addressValidated */\n      0x02\n        /* \"WalletValidator.sol\":7571:7597  addressValidated[_address] */\n      0x00\n        /* \"WalletValidator.sol\":7588:7596  _address */\n      dup4\n        /* \"WalletValidator.sol\":7571:7597  addressValidated[_address] */\n      0xffffffffffffffffffffffffffffffffffffffff\n      and\n      0xffffffffffffffffffffffffffffffffffffffff\n      and\n      dup2\n      mstore\n      0x20\n      add\n      swap1\n      dup2\n      mstore\n      0x20\n      add\n      0x00\n      keccak256\n      0x00\n      swap1\n      sload\n      swap1\n      0x0100\n      exp\n      swap1\n      div\n      0xff\n      and\n        /* \"WalletValidator.sol\":7564:7597  return addressValidated[_address] */\n      swap1\n      pop\n        /* \"WalletValidator.sol\":7479:7604  function walletAlreadyValidated(address _address) public view returns(bool){... */\n      swap2\n      swap1\n      pop\n      jump\t// out\n        /* \"WalletValidator.sol\":5665:5963  function senderExists(address _address) private view returns(bool){... */\n    tag_110:\n        /* \"WalletValidator.sol\":5726:5730  bool */\n      0x00\n        /* \"WalletValidator.sol\":5741:5764  Receiver[] storage list */\n      dup1\n        /* \"WalletValidator.sol\":5767:5774  senders */\n      0x01\n        /* \"WalletValidator.sol\":5767:5784  senders[_address] */\n      0x00\n        /* \"WalletValidator.sol\":5775:5783  _address */\n      dup5\n        /* \"WalletValidator.sol\":5767:5784  senders[_address] */\n      0xffffffffffffffffffffffffffffffffffffffff\n      and\n      0xffffffffffffffffffffffffffffffffffffffff\n      and\n      dup2\n      mstore\n      0x20\n      add\n      swap1\n      dup2\n      mstore\n      0x20\n      add\n      0x00\n      keccak256\n        /* \"WalletValidator.sol\":5741:5784  Receiver[] storage list = senders[_address] */\n      swap1\n      pop\n        /* \"WalletValidator.sol\":5799:5805  uint i */\n      0x00\n        /* \"WalletValidator.sol\":5794:5935  for (uint i = 0; i < list.length; i++){... */\n    tag_173:\n        /* \"WalletValidator.sol\":5815:5819  list */\n      dup2\n        /* \"WalletValidator.sol\":5815:5826  list.length */\n      dup1\n      sload\n      swap1\n      pop\n        /* \"WalletValidator.sol\":5811:5812  i */\n      dup2\n        /* \"WalletValidator.sol\":5811:5826  i < list.length */\n      lt\n        /* \"WalletValidator.sol\":5794:5935  for (uint i = 0; i < list.length; i++){... */\n      iszero\n      tag_174\n      jumpi\n        /* \"WalletValidator.sol\":5870:5880  msg.sender */\n      caller\n        /* \"WalletValidator.sol\":5850:5880  list[i].receiver == msg.sender */\n      0xffffffffffffffffffffffffffffffffffffffff\n      and\n        /* \"WalletValidator.sol\":5850:5854  list */\n      dup3\n        /* \"WalletValidator.sol\":5855:5856  i */\n      dup3\n        /* \"WalletValidator.sol\":5850:5857  list[i] */\n      dup2\n      sload\n      dup2\n      lt\n      tag_176\n      jumpi\n      tag_177\n      tag_94\n      jump\t// in\n    tag_177:\n    tag_176:\n      swap1\n      0x00\n      mstore\n      keccak256(0x00, 0x20)\n      add\n        /* \"WalletValidator.sol\":5850:5866  list[i].receiver */\n      0x00\n      add\n      0x00\n      swap1\n      sload\n      swap1\n      0x0100\n      exp\n      swap1\n      div\n      0xffffffffffffffffffffffffffffffffffffffff\n      and\n        /* \"WalletValidator.sol\":5850:5880  list[i].receiver == msg.sender */\n      0xffffffffffffffffffffffffffffffffffffffff\n      and\n      sub\n        /* \"WalletValidator.sol\":5846:5925  if (list[i].receiver == msg.sender){... */\n      tag_179\n      jumpi\n        /* \"WalletValidator.sol\":5906:5910  true */\n      0x01\n        /* \"WalletValidator.sol\":5899:5910  return true */\n      swap3\n      pop\n      pop\n      pop\n      jump(tag_172)\n        /* \"WalletValidator.sol\":5846:5925  if (list[i].receiver == msg.sender){... */\n    tag_179:\n        /* \"WalletValidator.sol\":5828:5831  i++ */\n      dup1\n      dup1\n      tag_180\n      swap1\n      tag_67\n      jump\t// in\n    tag_180:\n      swap2\n      pop\n      pop\n        /* \"WalletValidator.sol\":5794:5935  for (uint i = 0; i < list.length; i++){... */\n      jump(tag_173)\n    tag_174:\n      pop\n        /* \"WalletValidator.sol\":5951:5956  false */\n      0x00\n        /* \"WalletValidator.sol\":5944:5956  return false */\n      swap2\n      pop\n      pop\n        /* \"WalletValidator.sol\":5665:5963  function senderExists(address _address) private view returns(bool){... */\n    tag_172:\n      swap2\n      swap1\n      pop\n      jump\t// out\n        /* \"WalletValidator.sol\":4536:4826  function waitReceiverIndex(address _address) private view returns(uint){... */\n    tag_126:\n        /* \"WalletValidator.sol\":4602:4606  uint */\n      0x00\n        /* \"WalletValidator.sol\":4617:4639  address[] storage list */\n      dup1\n        /* \"WalletValidator.sol\":4642:4653  waitReceive */\n      0x00\n        /* \"WalletValidator.sol\":4642:4665  waitReceive[msg.sender] */\n      dup1\n        /* \"WalletValidator.sol\":4654:4664  msg.sender */\n      caller\n        /* \"WalletValidator.sol\":4642:4665  waitReceive[msg.sender] */\n      0xffffffffffffffffffffffffffffffffffffffff\n      and\n      0xffffffffffffffffffffffffffffffffffffffff\n      and\n      dup2\n      mstore\n      0x20\n      add\n      swap1\n      dup2\n      mstore\n      0x20\n      add\n      0x00\n      keccak256\n        /* \"WalletValidator.sol\":4617:4665  address[] storage list = waitReceive[msg.sender] */\n      swap1\n      pop\n        /* \"WalletValidator.sol\":4680:4686  uint i */\n      0x00\n        /* \"WalletValidator.sol\":4675:4802  for (uint i = 0; i < list.length; i++){... */\n    tag_182:\n        /* \"WalletValidator.sol\":4696:4700  list */\n      dup2\n        /* \"WalletValidator.sol\":4696:4707  list.length */\n      dup1\n      sload\n      swap1\n      pop\n        /* \"WalletValidator.sol\":4692:4693  i */\n      dup2\n        /* \"WalletValidator.sol\":4692:4707  i < list.length */\n      lt\n        /* \"WalletValidator.sol\":4675:4802  for (uint i = 0; i < list.length; i++){... */\n      iszero\n      tag_183\n      jumpi\n        /* \"WalletValidator.sol\":4742:4750  _address */\n      dup4\n        /* \"WalletValidator.sol\":4731:4750  list[i] == _address */\n      0xffffffffffffffffffffffffffffffffffffffff\n      and\n        /* \"WalletValidator.sol\":4731:4735  list */\n      dup3\n        /* \"WalletValidator.sol\":4736:4737  i */\n      dup3\n        /* \"WalletValidator.sol\":4731:4738  list[i] */\n      dup2\n      sload\n      dup2\n      lt\n      tag_185\n      jumpi\n      tag_186\n      tag_94\n      jump\t// in\n    tag_186:\n    tag_185:\n      swap1\n      0x00\n      mstore\n      keccak256(0x00, 0x20)\n      add\n      0x00\n      swap1\n      sload\n      swap1\n      0x0100\n      exp\n      swap1\n      div\n      0xffffffffffffffffffffffffffffffffffffffff\n      and\n        /* \"WalletValidator.sol\":4731:4750  list[i] == _address */\n      0xffffffffffffffffffffffffffffffffffffffff\n      and\n      sub\n        /* \"WalletValidator.sol\":4727:4792  if (list[i] == _address){... */\n      tag_188\n      jumpi\n        /* \"WalletValidator.sol\":4776:4777  i */\n      dup1\n        /* \"WalletValidator.sol\":4769:4777  return i */\n      swap3\n      pop\n      pop\n      pop\n      jump(tag_181)\n        /* \"WalletValidator.sol\":4727:4792  if (list[i] == _address){... */\n    tag_188:\n        /* \"WalletValidator.sol\":4709:4712  i++ */\n      dup1\n      dup1\n      tag_189\n      swap1\n      tag_67\n      jump\t// in\n    tag_189:\n      swap2\n      pop\n      pop\n        /* \"WalletValidator.sol\":4675:4802  for (uint i = 0; i < list.length; i++){... */\n      jump(tag_182)\n    tag_183:\n      pop\n        /* \"WalletValidator.sol\":4818:4819  0 */\n      0x00\n        /* \"WalletValidator.sol\":4811:4819  return 0 */\n      swap2\n      pop\n      pop\n        /* \"WalletValidator.sol\":4536:4826  function waitReceiverIndex(address _address) private view returns(uint){... */\n    tag_181:\n      swap2\n      swap1\n      pop\n      jump\t// out\n    tag_88:\n      mload(0x40)\n      dup1\n      0x40\n      add\n      0x40\n      mstore\n      dup1\n      and(0xffffffffffffffffffffffffffffffffffffffff, 0x00)\n      dup2\n      mstore\n      0x20\n      add\n      iszero(iszero(0x00))\n      dup2\n      mstore\n      pop\n      swap1\n      jump\t// out\n        /* \"#utility.yul\":7:84   */\n    tag_190:\n        /* \"#utility.yul\":44:51   */\n      0x00\n        /* \"#utility.yul\":73:78   */\n      dup2\n        /* \"#utility.yul\":62:78   */\n      swap1\n      pop\n        /* \"#utility.yul\":7:84   */\n      swap2\n      swap1\n      pop\n      jump\t// out\n        /* \"#utility.yul\":90:208   */\n    tag_191:\n        /* \"#utility.yul\":177:201   */\n      tag_234\n        /* \"#utility.yul\":195:200   */\n      dup2\n        /* \"#utility.yul\":177:201   */\n      tag_190\n      jump\t// in\n    tag_234:\n        /* \"#utility.yul\":172:175   */\n      dup3\n        /* \"#utility.yul\":165:202   */\n      mstore\n        /* \"#utility.yul\":90:208   */\n      pop\n      pop\n      jump\t// out\n        /* \"#utility.yul\":214:436   */\n    tag_16:\n        /* \"#utility.yul\":307:311   */\n      0x00\n        /* \"#utility.yul\":345:347   */\n      0x20\n        /* \"#utility.yul\":334:343   */\n      dup3\n        /* \"#utility.yul\":330:348   */\n      add\n        /* \"#utility.yul\":322:348   */\n      swap1\n      pop\n        /* \"#utility.yul\":358:429   */\n      tag_236\n        /* \"#utility.yul\":426:427   */\n      0x00\n        /* \"#utility.yul\":415:424   */\n      dup4\n        /* \"#utility.yul\":411:428   */\n      add\n        /* \"#utility.yul\":402:408   */\n      dup5\n        /* \"#utility.yul\":358:429   */\n      tag_191\n      jump\t// in\n    tag_236:\n        /* \"#utility.yul\":214:436   */\n      swap3\n      swap2\n      pop\n      pop\n      jump\t// out\n        /* \"#utility.yul\":523:640   */\n    tag_193:\n        /* \"#utility.yul\":632:633   */\n      0x00\n        /* \"#utility.yul\":629:630   */\n      dup1\n        /* \"#utility.yul\":622:634   */\n      revert\n        /* \"#utility.yul\":769:895   */\n    tag_195:\n        /* \"#utility.yul\":806:813   */\n      0x00\n        /* \"#utility.yul\":846:888   */\n      0xffffffffffffffffffffffffffffffffffffffff\n        /* \"#utility.yul\":839:844   */\n      dup3\n        /* \"#utility.yul\":835:889   */\n      and\n        /* \"#utility.yul\":824:889   */\n      swap1\n      pop\n        /* \"#utility.yul\":769:895   */\n      swap2\n      swap1\n      pop\n      jump\t// out\n        /* \"#utility.yul\":901:997   */\n    tag_196:\n        /* \"#utility.yul\":938:945   */\n      0x00\n        /* \"#utility.yul\":967:991   */\n      tag_242\n        /* \"#utility.yul\":985:990   */\n      dup3\n        /* \"#utility.yul\":967:991   */\n      tag_195\n      jump\t// in\n    tag_242:\n        /* \"#utility.yul\":956:991   */\n      swap1\n      pop\n        /* \"#utility.yul\":901:997   */\n      swap2\n      swap1\n      pop\n      jump\t// out\n        /* \"#utility.yul\":1003:1125   */\n    tag_197:\n        /* \"#utility.yul\":1076:1100   */\n      tag_244\n        /* \"#utility.yul\":1094:1099   */\n      dup2\n        /* \"#utility.yul\":1076:1100   */\n      tag_196\n      jump\t// in\n    tag_244:\n        /* \"#utility.yul\":1069:1074   */\n      dup2\n        /* \"#utility.yul\":1066:1101   */\n      eq\n        /* \"#utility.yul\":1056:1119   */\n      tag_245\n      jumpi\n        /* \"#utility.yul\":1115:1116   */\n      0x00\n        /* \"#utility.yul\":1112:1113   */\n      dup1\n        /* \"#utility.yul\":1105:1117   */\n      revert\n        /* \"#utility.yul\":1056:1119   */\n    tag_245:\n        /* \"#utility.yul\":1003:1125   */\n      pop\n      jump\t// out\n        /* \"#utility.yul\":1131:1270   */\n    tag_198:\n        /* \"#utility.yul\":1177:1182   */\n      0x00\n        /* \"#utility.yul\":1215:1221   */\n      dup2\n        /* \"#utility.yul\":1202:1222   */\n      calldataload\n        /* \"#utility.yul\":1193:1222   */\n      swap1\n      pop\n        /* \"#utility.yul\":1231:1264   */\n      tag_247\n        /* \"#utility.yul\":1258:1263   */\n      dup2\n        /* \"#utility.yul\":1231:1264   */\n      tag_197\n      jump\t// in\n    tag_247:\n        /* \"#utility.yul\":1131:1270   */\n      swap3\n      swap2\n      pop\n      pop\n      jump\t// out\n        /* \"#utility.yul\":1276:1605   */\n    tag_19:\n        /* \"#utility.yul\":1335:1341   */\n      0x00\n        /* \"#utility.yul\":1384:1386   */\n      0x20\n        /* \"#utility.yul\":1372:1381   */\n      dup3\n        /* \"#utility.yul\":1363:1370   */\n      dup5\n        /* \"#utility.yul\":1359:1382   */\n      sub\n        /* \"#utility.yul\":1355:1387   */\n      slt\n        /* \"#utility.yul\":1352:1471   */\n      iszero\n      tag_249\n      jumpi\n        /* \"#utility.yul\":1390:1469   */\n      tag_250\n      tag_193\n      jump\t// in\n    tag_250:\n        /* \"#utility.yul\":1352:1471   */\n    tag_249:\n        /* \"#utility.yul\":1510:1511   */\n      0x00\n        /* \"#utility.yul\":1535:1588   */\n      tag_251\n        /* \"#utility.yul\":1580:1587   */\n      dup5\n        /* \"#utility.yul\":1571:1577   */\n      dup3\n        /* \"#utility.yul\":1560:1569   */\n      dup6\n        /* \"#utility.yul\":1556:1578   */\n      add\n        /* \"#utility.yul\":1535:1588   */\n      tag_198\n      jump\t// in\n    tag_251:\n        /* \"#utility.yul\":1525:1588   */\n      swap2\n      pop\n        /* \"#utility.yul\":1481:1598   */\n      pop\n        /* \"#utility.yul\":1276:1605   */\n      swap3\n      swap2\n      pop\n      pop\n      jump\t// out\n        /* \"#utility.yul\":1611:1748   */\n    tag_199:\n        /* \"#utility.yul\":1701:1707   */\n      0x00\n        /* \"#utility.yul\":1735:1740   */\n      dup2\n        /* \"#utility.yul\":1729:1741   */\n      mload\n        /* \"#utility.yul\":1719:1741   */\n      swap1\n      pop\n        /* \"#utility.yul\":1611:1748   */\n      swap2\n      swap1\n      pop\n      jump\t// out\n        /* \"#utility.yul\":1754:1961   */\n    tag_200:\n        /* \"#utility.yul\":1876:1887   */\n      0x00\n        /* \"#utility.yul\":1910:1916   */\n      dup3\n        /* \"#utility.yul\":1905:1908   */\n      dup3\n        /* \"#utility.yul\":1898:1917   */\n      mstore\n        /* \"#utility.yul\":1950:1954   */\n      0x20\n        /* \"#utility.yul\":1945:1948   */\n      dup3\n        /* \"#utility.yul\":1941:1955   */\n      add\n        /* \"#utility.yul\":1926:1955   */\n      swap1\n      pop\n        /* \"#utility.yul\":1754:1961   */\n      swap3\n      swap2\n      pop\n      pop\n      jump\t// out\n        /* \"#utility.yul\":1967:2122   */\n    tag_201:\n        /* \"#utility.yul\":2057:2061   */\n      0x00\n        /* \"#utility.yul\":2080:2083   */\n      dup2\n        /* \"#utility.yul\":2072:2083   */\n      swap1\n      pop\n        /* \"#utility.yul\":2110:2114   */\n      0x20\n        /* \"#utility.yul\":2105:2108   */\n      dup3\n        /* \"#utility.yul\":2101:2115   */\n      add\n        /* \"#utility.yul\":2093:2115   */\n      swap1\n      pop\n        /* \"#utility.yul\":1967:2122   */\n      swap2\n      swap1\n      pop\n      jump\t// out\n        /* \"#utility.yul\":2128:2236   */\n    tag_202:\n        /* \"#utility.yul\":2205:2229   */\n      tag_256\n        /* \"#utility.yul\":2223:2228   */\n      dup2\n        /* \"#utility.yul\":2205:2229   */\n      tag_196\n      jump\t// in\n    tag_256:\n        /* \"#utility.yul\":2200:2203   */\n      dup3\n        /* \"#utility.yul\":2193:2230   */\n      mstore\n        /* \"#utility.yul\":2128:2236   */\n      pop\n      pop\n      jump\t// out\n        /* \"#utility.yul\":2242:2332   */\n    tag_203:\n        /* \"#utility.yul\":2276:2283   */\n      0x00\n        /* \"#utility.yul\":2319:2324   */\n      dup2\n        /* \"#utility.yul\":2312:2325   */\n      iszero\n        /* \"#utility.yul\":2305:2326   */\n      iszero\n        /* \"#utility.yul\":2294:2326   */\n      swap1\n      pop\n        /* \"#utility.yul\":2242:2332   */\n      swap2\n      swap1\n      pop\n      jump\t// out\n        /* \"#utility.yul\":2338:2437   */\n    tag_204:\n        /* \"#utility.yul\":2409:2430   */\n      tag_259\n        /* \"#utility.yul\":2424:2429   */\n      dup2\n        /* \"#utility.yul\":2409:2430   */\n      tag_203\n      jump\t// in\n    tag_259:\n        /* \"#utility.yul\":2404:2407   */\n      dup3\n        /* \"#utility.yul\":2397:2431   */\n      mstore\n        /* \"#utility.yul\":2338:2437   */\n      pop\n      pop\n      jump\t// out\n        /* \"#utility.yul\":2517:3013   */\n    tag_205:\n        /* \"#utility.yul\":2650:2654   */\n      0x40\n        /* \"#utility.yul\":2645:2648   */\n      dup3\n        /* \"#utility.yul\":2641:2655   */\n      add\n        /* \"#utility.yul\":2741:2745   */\n      0x00\n        /* \"#utility.yul\":2734:2739   */\n      dup3\n        /* \"#utility.yul\":2730:2746   */\n      add\n        /* \"#utility.yul\":2724:2747   */\n      mload\n        /* \"#utility.yul\":2760:2823   */\n      tag_261\n        /* \"#utility.yul\":2817:2821   */\n      0x00\n        /* \"#utility.yul\":2812:2815   */\n      dup6\n        /* \"#utility.yul\":2808:2822   */\n      add\n        /* \"#utility.yul\":2794:2806   */\n      dup3\n        /* \"#utility.yul\":2760:2823   */\n      tag_202\n      jump\t// in\n    tag_261:\n        /* \"#utility.yul\":2665:2833   */\n      pop\n        /* \"#utility.yul\":2920:2924   */\n      0x20\n        /* \"#utility.yul\":2913:2918   */\n      dup3\n        /* \"#utility.yul\":2909:2925   */\n      add\n        /* \"#utility.yul\":2903:2926   */\n      mload\n        /* \"#utility.yul\":2939:2996   */\n      tag_262\n        /* \"#utility.yul\":2990:2994   */\n      0x20\n        /* \"#utility.yul\":2985:2988   */\n      dup6\n        /* \"#utility.yul\":2981:2995   */\n      add\n        /* \"#utility.yul\":2967:2979   */\n      dup3\n        /* \"#utility.yul\":2939:2996   */\n      tag_204\n      jump\t// in\n    tag_262:\n        /* \"#utility.yul\":2843:3006   */\n      pop\n        /* \"#utility.yul\":2619:3013   */\n      pop\n        /* \"#utility.yul\":2517:3013   */\n      pop\n      pop\n      jump\t// out\n        /* \"#utility.yul\":3019:3290   */\n    tag_206:\n        /* \"#utility.yul\":3134:3144   */\n      0x00\n        /* \"#utility.yul\":3155:3247   */\n      tag_264\n        /* \"#utility.yul\":3243:3246   */\n      dup4\n        /* \"#utility.yul\":3235:3241   */\n      dup4\n        /* \"#utility.yul\":3155:3247   */\n      tag_205\n      jump\t// in\n    tag_264:\n        /* \"#utility.yul\":3279:3283   */\n      0x40\n        /* \"#utility.yul\":3274:3277   */\n      dup4\n        /* \"#utility.yul\":3270:3284   */\n      add\n        /* \"#utility.yul\":3256:3284   */\n      swap1\n      pop\n        /* \"#utility.yul\":3019:3290   */\n      swap3\n      swap2\n      pop\n      pop\n      jump\t// out\n        /* \"#utility.yul\":3296:3432   */\n    tag_207:\n        /* \"#utility.yul\":3389:3393   */\n      0x00\n        /* \"#utility.yul\":3421:3425   */\n      0x20\n        /* \"#utility.yul\":3416:3419   */\n      dup3\n        /* \"#utility.yul\":3412:3426   */\n      add\n        /* \"#utility.yul\":3404:3426   */\n      swap1\n      pop\n        /* \"#utility.yul\":3296:3432   */\n      swap2\n      swap1\n      pop\n      jump\t// out\n        /* \"#utility.yul\":3516:4432   */\n    tag_208:\n        /* \"#utility.yul\":3681:3684   */\n      0x00\n        /* \"#utility.yul\":3710:3787   */\n      tag_267\n        /* \"#utility.yul\":3781:3786   */\n      dup3\n        /* \"#utility.yul\":3710:3787   */\n      tag_199\n      jump\t// in\n    tag_267:\n        /* \"#utility.yul\":3803:3912   */\n      tag_268\n        /* \"#utility.yul\":3905:3911   */\n      dup2\n        /* \"#utility.yul\":3900:3903   */\n      dup6\n        /* \"#utility.yul\":3803:3912   */\n      tag_200\n      jump\t// in\n    tag_268:\n        /* \"#utility.yul\":3796:3912   */\n      swap4\n      pop\n        /* \"#utility.yul\":3936:4015   */\n      tag_269\n        /* \"#utility.yul\":4009:4014   */\n      dup4\n        /* \"#utility.yul\":3936:4015   */\n      tag_201\n      jump\t// in\n    tag_269:\n        /* \"#utility.yul\":4038:4045   */\n      dup1\n        /* \"#utility.yul\":4069:4070   */\n      0x00\n        /* \"#utility.yul\":4054:4407   */\n    tag_270:\n        /* \"#utility.yul\":4079:4085   */\n      dup4\n        /* \"#utility.yul\":4076:4077   */\n      dup2\n        /* \"#utility.yul\":4073:4086   */\n      lt\n        /* \"#utility.yul\":4054:4407   */\n      iszero\n      tag_272\n      jumpi\n        /* \"#utility.yul\":4155:4161   */\n      dup2\n        /* \"#utility.yul\":4149:4162   */\n      mload\n        /* \"#utility.yul\":4182:4291   */\n      tag_273\n        /* \"#utility.yul\":4287:4290   */\n      dup9\n        /* \"#utility.yul\":4272:4285   */\n      dup3\n        /* \"#utility.yul\":4182:4291   */\n      tag_206\n      jump\t// in\n    tag_273:\n        /* \"#utility.yul\":4175:4291   */\n      swap8\n      pop\n        /* \"#utility.yul\":4314:4397   */\n      tag_274\n        /* \"#utility.yul\":4390:4396   */\n      dup4\n        /* \"#utility.yul\":4314:4397   */\n      tag_207\n      jump\t// in\n    tag_274:\n        /* \"#utility.yul\":4304:4397   */\n      swap3\n      pop\n        /* \"#utility.yul\":4114:4407   */\n      pop\n        /* \"#utility.yul\":4101:4102   */\n      0x01\n        /* \"#utility.yul\":4098:4099   */\n      dup2\n        /* \"#utility.yul\":4094:4103   */\n      add\n        /* \"#utility.yul\":4089:4103   */\n      swap1\n      pop\n        /* \"#utility.yul\":4054:4407   */\n      jump(tag_270)\n    tag_272:\n        /* \"#utility.yul\":4058:4072   */\n      pop\n        /* \"#utility.yul\":4423:4426   */\n      dup6\n        /* \"#utility.yul\":4416:4426   */\n      swap4\n      pop\n        /* \"#utility.yul\":3686:4432   */\n      pop\n      pop\n      pop\n        /* \"#utility.yul\":3516:4432   */\n      swap3\n      swap2\n      pop\n      pop\n      jump\t// out\n        /* \"#utility.yul\":4438:4903   */\n    tag_25:\n        /* \"#utility.yul\":4627:4631   */\n      0x00\n        /* \"#utility.yul\":4665:4667   */\n      0x20\n        /* \"#utility.yul\":4654:4663   */\n      dup3\n        /* \"#utility.yul\":4650:4668   */\n      add\n        /* \"#utility.yul\":4642:4668   */\n      swap1\n      pop\n        /* \"#utility.yul\":4714:4723   */\n      dup2\n        /* \"#utility.yul\":4708:4712   */\n      dup2\n        /* \"#utility.yul\":4704:4724   */\n      sub\n        /* \"#utility.yul\":4700:4701   */\n      0x00\n        /* \"#utility.yul\":4689:4698   */\n      dup4\n        /* \"#utility.yul\":4685:4702   */\n      add\n        /* \"#utility.yul\":4678:4725   */\n      mstore\n        /* \"#utility.yul\":4742:4896   */\n      tag_276\n        /* \"#utility.yul\":4891:4895   */\n      dup2\n        /* \"#utility.yul\":4882:4888   */\n      dup5\n        /* \"#utility.yul\":4742:4896   */\n      tag_208\n      jump\t// in\n    tag_276:\n        /* \"#utility.yul\":4734:4896   */\n      swap1\n      pop\n        /* \"#utility.yul\":4438:4903   */\n      swap3\n      swap2\n      pop\n      pop\n      jump\t// out\n        /* \"#utility.yul\":4909:5018   */\n    tag_209:\n        /* \"#utility.yul\":4990:5011   */\n      tag_278\n        /* \"#utility.yul\":5005:5010   */\n      dup2\n        /* \"#utility.yul\":4990:5011   */\n      tag_203\n      jump\t// in\n    tag_278:\n        /* \"#utility.yul\":4985:4988   */\n      dup3\n        /* \"#utility.yul\":4978:5012   */\n      mstore\n        /* \"#utility.yul\":4909:5018   */\n      pop\n      pop\n      jump\t// out\n        /* \"#utility.yul\":5024:5234   */\n    tag_31:\n        /* \"#utility.yul\":5111:5115   */\n      0x00\n        /* \"#utility.yul\":5149:5151   */\n      0x20\n        /* \"#utility.yul\":5138:5147   */\n      dup3\n        /* \"#utility.yul\":5134:5152   */\n      add\n        /* \"#utility.yul\":5126:5152   */\n      swap1\n      pop\n        /* \"#utility.yul\":5162:5227   */\n      tag_280\n        /* \"#utility.yul\":5224:5225   */\n      0x00\n        /* \"#utility.yul\":5213:5222   */\n      dup4\n        /* \"#utility.yul\":5209:5226   */\n      add\n        /* \"#utility.yul\":5200:5206   */\n      dup5\n        /* \"#utility.yul\":5162:5227   */\n      tag_209\n      jump\t// in\n    tag_280:\n        /* \"#utility.yul\":5024:5234   */\n      swap3\n      swap2\n      pop\n      pop\n      jump\t// out\n        /* \"#utility.yul\":5240:5354   */\n    tag_210:\n        /* \"#utility.yul\":5307:5313   */\n      0x00\n        /* \"#utility.yul\":5341:5346   */\n      dup2\n        /* \"#utility.yul\":5335:5347   */\n      mload\n        /* \"#utility.yul\":5325:5347   */\n      swap1\n      pop\n        /* \"#utility.yul\":5240:5354   */\n      swap2\n      swap1\n      pop\n      jump\t// out\n        /* \"#utility.yul\":5360:5544   */\n    tag_211:\n        /* \"#utility.yul\":5459:5470   */\n      0x00\n        /* \"#utility.yul\":5493:5499   */\n      dup3\n        /* \"#utility.yul\":5488:5491   */\n      dup3\n        /* \"#utility.yul\":5481:5500   */\n      mstore\n        /* \"#utility.yul\":5533:5537   */\n      0x20\n        /* \"#utility.yul\":5528:5531   */\n      dup3\n        /* \"#utility.yul\":5524:5538   */\n      add\n        /* \"#utility.yul\":5509:5538   */\n      swap1\n      pop\n        /* \"#utility.yul\":5360:5544   */\n      swap3\n      swap2\n      pop\n      pop\n      jump\t// out\n        /* \"#utility.yul\":5550:5682   */\n    tag_212:\n        /* \"#utility.yul\":5617:5621   */\n      0x00\n        /* \"#utility.yul\":5640:5643   */\n      dup2\n        /* \"#utility.yul\":5632:5643   */\n      swap1\n      pop\n        /* \"#utility.yul\":5670:5674   */\n      0x20\n        /* \"#utility.yul\":5665:5668   */\n      dup3\n        /* \"#utility.yul\":5661:5675   */\n      add\n        /* \"#utility.yul\":5653:5675   */\n      swap1\n      pop\n        /* \"#utility.yul\":5550:5682   */\n      swap2\n      swap1\n      pop\n      jump\t// out\n        /* \"#utility.yul\":5688:5867   */\n    tag_213:\n        /* \"#utility.yul\":5757:5767   */\n      0x00\n        /* \"#utility.yul\":5778:5824   */\n      tag_285\n        /* \"#utility.yul\":5820:5823   */\n      dup4\n        /* \"#utility.yul\":5812:5818   */\n      dup4\n        /* \"#utility.yul\":5778:5824   */\n      tag_202\n      jump\t// in\n    tag_285:\n        /* \"#utility.yul\":5856:5860   */\n      0x20\n        /* \"#utility.yul\":5851:5854   */\n      dup4\n        /* \"#utility.yul\":5847:5861   */\n      add\n        /* \"#utility.yul\":5833:5861   */\n      swap1\n      pop\n        /* \"#utility.yul\":5688:5867   */\n      swap3\n      swap2\n      pop\n      pop\n      jump\t// out\n        /* \"#utility.yul\":5873:5986   */\n    tag_214:\n        /* \"#utility.yul\":5943:5947   */\n      0x00\n        /* \"#utility.yul\":5975:5979   */\n      0x20\n        /* \"#utility.yul\":5970:5973   */\n      dup3\n        /* \"#utility.yul\":5966:5980   */\n      add\n        /* \"#utility.yul\":5958:5980   */\n      swap1\n      pop\n        /* \"#utility.yul\":5873:5986   */\n      swap2\n      swap1\n      pop\n      jump\t// out\n        /* \"#utility.yul\":6022:6754   */\n    tag_215:\n        /* \"#utility.yul\":6141:6144   */\n      0x00\n        /* \"#utility.yul\":6170:6224   */\n      tag_288\n        /* \"#utility.yul\":6218:6223   */\n      dup3\n        /* \"#utility.yul\":6170:6224   */\n      tag_210\n      jump\t// in\n    tag_288:\n        /* \"#utility.yul\":6240:6326   */\n      tag_289\n        /* \"#utility.yul\":6319:6325   */\n      dup2\n        /* \"#utility.yul\":6314:6317   */\n      dup6\n        /* \"#utility.yul\":6240:6326   */\n      tag_211\n      jump\t// in\n    tag_289:\n        /* \"#utility.yul\":6233:6326   */\n      swap4\n      pop\n        /* \"#utility.yul\":6350:6406   */\n      tag_290\n        /* \"#utility.yul\":6400:6405   */\n      dup4\n        /* \"#utility.yul\":6350:6406   */\n      tag_212\n      jump\t// in\n    tag_290:\n        /* \"#utility.yul\":6429:6436   */\n      dup1\n        /* \"#utility.yul\":6460:6461   */\n      0x00\n        /* \"#utility.yul\":6445:6729   */\n    tag_291:\n        /* \"#utility.yul\":6470:6476   */\n      dup4\n        /* \"#utility.yul\":6467:6468   */\n      dup2\n        /* \"#utility.yul\":6464:6477   */\n      lt\n        /* \"#utility.yul\":6445:6729   */\n      iszero\n      tag_293\n      jumpi\n        /* \"#utility.yul\":6546:6552   */\n      dup2\n        /* \"#utility.yul\":6540:6553   */\n      mload\n        /* \"#utility.yul\":6573:6636   */\n      tag_294\n        /* \"#utility.yul\":6632:6635   */\n      dup9\n        /* \"#utility.yul\":6617:6630   */\n      dup3\n        /* \"#utility.yul\":6573:6636   */\n      tag_213\n      jump\t// in\n    tag_294:\n        /* \"#utility.yul\":6566:6636   */\n      swap8\n      pop\n        /* \"#utility.yul\":6659:6719   */\n      tag_295\n        /* \"#utility.yul\":6712:6718   */\n      dup4\n        /* \"#utility.yul\":6659:6719   */\n      tag_214\n      jump\t// in\n    tag_295:\n        /* \"#utility.yul\":6649:6719   */\n      swap3\n      pop\n        /* \"#utility.yul\":6505:6729   */\n      pop\n        /* \"#utility.yul\":6492:6493   */\n      0x01\n        /* \"#utility.yul\":6489:6490   */\n      dup2\n        /* \"#utility.yul\":6485:6494   */\n      add\n        /* \"#utility.yul\":6480:6494   */\n      swap1\n      pop\n        /* \"#utility.yul\":6445:6729   */\n      jump(tag_291)\n    tag_293:\n        /* \"#utility.yul\":6449:6463   */\n      pop\n        /* \"#utility.yul\":6745:6748   */\n      dup6\n        /* \"#utility.yul\":6738:6748   */\n      swap4\n      pop\n        /* \"#utility.yul\":6146:6754   */\n      pop\n      pop\n      pop\n        /* \"#utility.yul\":6022:6754   */\n      swap3\n      swap2\n      pop\n      pop\n      jump\t// out\n        /* \"#utility.yul\":6760:7133   */\n    tag_43:\n        /* \"#utility.yul\":6903:6907   */\n      0x00\n        /* \"#utility.yul\":6941:6943   */\n      0x20\n        /* \"#utility.yul\":6930:6939   */\n      dup3\n        /* \"#utility.yul\":6926:6944   */\n      add\n        /* \"#utility.yul\":6918:6944   */\n      swap1\n      pop\n        /* \"#utility.yul\":6990:6999   */\n      dup2\n        /* \"#utility.yul\":6984:6988   */\n      dup2\n        /* \"#utility.yul\":6980:7000   */\n      sub\n        /* \"#utility.yul\":6976:6977   */\n      0x00\n        /* \"#utility.yul\":6965:6974   */\n      dup4\n        /* \"#utility.yul\":6961:6978   */\n      add\n        /* \"#utility.yul\":6954:7001   */\n      mstore\n        /* \"#utility.yul\":7018:7126   */\n      tag_297\n        /* \"#utility.yul\":7121:7125   */\n      dup2\n        /* \"#utility.yul\":7112:7118   */\n      dup5\n        /* \"#utility.yul\":7018:7126   */\n      tag_215\n      jump\t// in\n    tag_297:\n        /* \"#utility.yul\":7010:7126   */\n      swap1\n      pop\n        /* \"#utility.yul\":6760:7133   */\n      swap3\n      swap2\n      pop\n      pop\n      jump\t// out\n        /* \"#utility.yul\":7139:7308   */\n    tag_216:\n        /* \"#utility.yul\":7223:7234   */\n      0x00\n        /* \"#utility.yul\":7257:7263   */\n      dup3\n        /* \"#utility.yul\":7252:7255   */\n      dup3\n        /* \"#utility.yul\":7245:7264   */\n      mstore\n        /* \"#utility.yul\":7297:7301   */\n      0x20\n        /* \"#utility.yul\":7292:7295   */\n      dup3\n        /* \"#utility.yul\":7288:7302   */\n      add\n        /* \"#utility.yul\":7273:7302   */\n      swap1\n      pop\n        /* \"#utility.yul\":7139:7308   */\n      swap3\n      swap2\n      pop\n      pop\n      jump\t// out\n        /* \"#utility.yul\":7314:7536   */\n    tag_217:\n        /* \"#utility.yul\":7454:7488   */\n      0x596f752063616e6e6f2076616c696461746520796f7572206f776e2077616c6c\n        /* \"#utility.yul\":7450:7451   */\n      0x00\n        /* \"#utility.yul\":7442:7448   */\n      dup3\n        /* \"#utility.yul\":7438:7452   */\n      add\n        /* \"#utility.yul\":7431:7489   */\n      mstore\n        /* \"#utility.yul\":7523:7528   */\n      0x6574210000000000000000000000000000000000000000000000000000000000\n        /* \"#utility.yul\":7518:7520   */\n      0x20\n        /* \"#utility.yul\":7510:7516   */\n      dup3\n        /* \"#utility.yul\":7506:7521   */\n      add\n        /* \"#utility.yul\":7499:7529   */\n      mstore\n        /* \"#utility.yul\":7314:7536   */\n      pop\n      jump\t// out\n        /* \"#utility.yul\":7542:7908   */\n    tag_218:\n        /* \"#utility.yul\":7684:7687   */\n      0x00\n        /* \"#utility.yul\":7705:7772   */\n      tag_301\n        /* \"#utility.yul\":7769:7771   */\n      0x23\n        /* \"#utility.yul\":7764:7767   */\n      dup4\n        /* \"#utility.yul\":7705:7772   */\n      tag_216\n      jump\t// in\n    tag_301:\n        /* \"#utility.yul\":7698:7772   */\n      swap2\n      pop\n        /* \"#utility.yul\":7781:7874   */\n      tag_302\n        /* \"#utility.yul\":7870:7873   */\n      dup3\n        /* \"#utility.yul\":7781:7874   */\n      tag_217\n      jump\t// in\n    tag_302:\n        /* \"#utility.yul\":7899:7901   */\n      0x40\n        /* \"#utility.yul\":7894:7897   */\n      dup3\n        /* \"#utility.yul\":7890:7902   */\n      add\n        /* \"#utility.yul\":7883:7902   */\n      swap1\n      pop\n        /* \"#utility.yul\":7542:7908   */\n      swap2\n      swap1\n      pop\n      jump\t// out\n        /* \"#utility.yul\":7914:8333   */\n    tag_58:\n        /* \"#utility.yul\":8080:8084   */\n      0x00\n        /* \"#utility.yul\":8118:8120   */\n      0x20\n        /* \"#utility.yul\":8107:8116   */\n      dup3\n        /* \"#utility.yul\":8103:8121   */\n      add\n        /* \"#utility.yul\":8095:8121   */\n      swap1\n      pop\n        /* \"#utility.yul\":8167:8176   */\n      dup2\n        /* \"#utility.yul\":8161:8165   */\n      dup2\n        /* \"#utility.yul\":8157:8177   */\n      sub\n        /* \"#utility.yul\":8153:8154   */\n      0x00\n        /* \"#utility.yul\":8142:8151   */\n      dup4\n        /* \"#utility.yul\":8138:8155   */\n      add\n        /* \"#utility.yul\":8131:8178   */\n      mstore\n        /* \"#utility.yul\":8195:8326   */\n      tag_304\n        /* \"#utility.yul\":8321:8325   */\n      dup2\n        /* \"#utility.yul\":8195:8326   */\n      tag_218\n      jump\t// in\n    tag_304:\n        /* \"#utility.yul\":8187:8326   */\n      swap1\n      pop\n        /* \"#utility.yul\":7914:8333   */\n      swap2\n      swap1\n      pop\n      jump\t// out\n        /* \"#utility.yul\":8339:8515   */\n    tag_219:\n        /* \"#utility.yul\":8479:8507   */\n      0x4e6f206d6f6e657920746f206265207472616e73666572656421000000000000\n        /* \"#utility.yul\":8475:8476   */\n      0x00\n        /* \"#utility.yul\":8467:8473   */\n      dup3\n        /* \"#utility.yul\":8463:8477   */\n      add\n        /* \"#utility.yul\":8456:8508   */\n      mstore\n        /* \"#utility.yul\":8339:8515   */\n      pop\n      jump\t// out\n        /* \"#utility.yul\":8521:8887   */\n    tag_220:\n        /* \"#utility.yul\":8663:8666   */\n      0x00\n        /* \"#utility.yul\":8684:8751   */\n      tag_307\n        /* \"#utility.yul\":8748:8750   */\n      0x1a\n        /* \"#utility.yul\":8743:8746   */\n      dup4\n        /* \"#utility.yul\":8684:8751   */\n      tag_216\n      jump\t// in\n    tag_307:\n        /* \"#utility.yul\":8677:8751   */\n      swap2\n      pop\n        /* \"#utility.yul\":8760:8853   */\n      tag_308\n        /* \"#utility.yul\":8849:8852   */\n      dup3\n        /* \"#utility.yul\":8760:8853   */\n      tag_219\n      jump\t// in\n    tag_308:\n        /* \"#utility.yul\":8878:8880   */\n      0x20\n        /* \"#utility.yul\":8873:8876   */\n      dup3\n        /* \"#utility.yul\":8869:8881   */\n      add\n        /* \"#utility.yul\":8862:8881   */\n      swap1\n      pop\n        /* \"#utility.yul\":8521:8887   */\n      swap2\n      swap1\n      pop\n      jump\t// out\n        /* \"#utility.yul\":8893:9312   */\n    tag_63:\n        /* \"#utility.yul\":9059:9063   */\n      0x00\n        /* \"#utility.yul\":9097:9099   */\n      0x20\n        /* \"#utility.yul\":9086:9095   */\n      dup3\n        /* \"#utility.yul\":9082:9100   */\n      add\n        /* \"#utility.yul\":9074:9100   */\n      swap1\n      pop\n        /* \"#utility.yul\":9146:9155   */\n      dup2\n        /* \"#utility.yul\":9140:9144   */\n      dup2\n        /* \"#utility.yul\":9136:9156   */\n      sub\n        /* \"#utility.yul\":9132:9133   */\n      0x00\n        /* \"#utility.yul\":9121:9130   */\n      dup4\n        /* \"#utility.yul\":9117:9134   */\n      add\n        /* \"#utility.yul\":9110:9157   */\n      mstore\n        /* \"#utility.yul\":9174:9305   */\n      tag_310\n        /* \"#utility.yul\":9300:9304   */\n      dup2\n        /* \"#utility.yul\":9174:9305   */\n      tag_220\n      jump\t// in\n    tag_310:\n        /* \"#utility.yul\":9166:9305   */\n      swap1\n      pop\n        /* \"#utility.yul\":8893:9312   */\n      swap2\n      swap1\n      pop\n      jump\t// out\n        /* \"#utility.yul\":9318:9498   */\n    tag_221:\n        /* \"#utility.yul\":9366:9443   */\n      0x4e487b7100000000000000000000000000000000000000000000000000000000\n        /* \"#utility.yul\":9363:9364   */\n      0x00\n        /* \"#utility.yul\":9356:9444   */\n      mstore\n        /* \"#utility.yul\":9463:9467   */\n      0x11\n        /* \"#utility.yul\":9460:9461   */\n      0x04\n        /* \"#utility.yul\":9453:9468   */\n      mstore\n        /* \"#utility.yul\":9487:9491   */\n      0x24\n        /* \"#utility.yul\":9484:9485   */\n      0x00\n        /* \"#utility.yul\":9477:9492   */\n      revert\n        /* \"#utility.yul\":9504:9737   */\n    tag_67:\n        /* \"#utility.yul\":9543:9546   */\n      0x00\n        /* \"#utility.yul\":9566:9590   */\n      tag_313\n        /* \"#utility.yul\":9584:9589   */\n      dup3\n        /* \"#utility.yul\":9566:9590   */\n      tag_190\n      jump\t// in\n    tag_313:\n        /* \"#utility.yul\":9557:9590   */\n      swap2\n      pop\n        /* \"#utility.yul\":9612:9678   */\n      0xffffffffffffffffffffffffffffffffffffffffffffffffffffffffffffffff\n        /* \"#utility.yul\":9605:9610   */\n      dup3\n        /* \"#utility.yul\":9602:9679   */\n      sub\n        /* \"#utility.yul\":9599:9702   */\n      tag_314\n      jumpi\n        /* \"#utility.yul\":9682:9700   */\n      tag_315\n      tag_221\n      jump\t// in\n    tag_315:\n        /* \"#utility.yul\":9599:9702   */\n    tag_314:\n        /* \"#utility.yul\":9729:9730   */\n      0x01\n        /* \"#utility.yul\":9722:9727   */\n      dup3\n        /* \"#utility.yul\":9718:9731   */\n      add\n        /* \"#utility.yul\":9711:9731   */\n      swap1\n      pop\n        /* \"#utility.yul\":9504:9737   */\n      swap2\n      swap1\n      pop\n      jump\t// out\n        /* \"#utility.yul\":9743:9890   */\n    tag_222:\n        /* \"#utility.yul\":9844:9855   */\n      0x00\n        /* \"#utility.yul\":9881:9884   */\n      dup2\n        /* \"#utility.yul\":9866:9884   */\n      swap1\n      pop\n        /* \"#utility.yul\":9743:9890   */\n      swap3\n      swap2\n      pop\n      pop\n      jump\t// out\n        /* \"#utility.yul\":9896:10010   */\n    tag_223:\n      pop\n      jump\t// out\n        /* \"#utility.yul\":10016:10414   */\n    tag_224:\n        /* \"#utility.yul\":10175:10178   */\n      0x00\n        /* \"#utility.yul\":10196:10279   */\n      tag_319\n        /* \"#utility.yul\":10277:10278   */\n      0x00\n        /* \"#utility.yul\":10272:10275   */\n      dup4\n        /* \"#utility.yul\":10196:10279   */\n      tag_222\n      jump\t// in\n    tag_319:\n        /* \"#utility.yul\":10189:10279   */\n      swap2\n      pop\n        /* \"#utility.yul\":10288:10381   */\n      tag_320\n        /* \"#utility.yul\":10377:10380   */\n      dup3\n        /* \"#utility.yul\":10288:10381   */\n      tag_223\n      jump\t// in\n    tag_320:\n        /* \"#utility.yul\":10406:10407   */\n      0x00\n        /* \"#utility.yul\":10401:10404   */\n      dup3\n        /* \"#utility.yul\":10397:10408   */\n      add\n        /* \"#utility.yul\":10390:10408   */\n      swap1\n      pop\n        /* \"#utility.yul\":10016:10414   */\n      swap2\n      swap1\n      pop\n      jump\t// out\n        /* \"#utility.yul\":10420:10799   */\n    tag_70:\n        /* \"#utility.yul\":10604:10607   */\n      0x00\n        /* \"#utility.yul\":10626:10773   */\n      tag_322\n        /* \"#utility.yul\":10769:10772   */\n      dup3\n        /* \"#utility.yul\":10626:10773   */\n      tag_224\n      jump\t// in\n    tag_322:\n        /* \"#utility.yul\":10619:10773   */\n      swap2\n      pop\n        /* \"#utility.yul\":10790:10793   */\n      dup2\n        /* \"#utility.yul\":10783:10793   */\n      swap1\n      pop\n        /* \"#utility.yul\":10420:10799   */\n      swap2\n      swap1\n      pop\n      jump\t// out\n        /* \"#utility.yul\":10805:10971   */\n    tag_225:\n        /* \"#utility.yul\":10945:10963   */\n      0x5472616e73666572206661696c65642e00000000000000000000000000000000\n        /* \"#utility.yul\":10941:10942   */\n      0x00\n        /* \"#utility.yul\":10933:10939   */\n      dup3\n        /* \"#utility.yul\":10929:10943   */\n      add\n        /* \"#utility.yul\":10922:10964   */\n      mstore\n        /* \"#utility.yul\":10805:10971   */\n      pop\n      jump\t// out\n        /* \"#utility.yul\":10977:11343   */\n    tag_226:\n        /* \"#utility.yul\":11119:11122   */\n      0x00\n        /* \"#utility.yul\":11140:11207   */\n      tag_325\n        /* \"#utility.yul\":11204:11206   */\n      0x10\n        /* \"#utility.yul\":11199:11202   */\n      dup4\n        /* \"#utility.yul\":11140:11207   */\n      tag_216\n      jump\t// in\n    tag_325:\n        /* \"#utility.yul\":11133:11207   */\n      swap2\n      pop\n        /* \"#utility.yul\":11216:11309   */\n      tag_326\n        /* \"#utility.yul\":11305:11308   */\n      dup3\n        /* \"#utility.yul\":11216:11309   */\n      tag_225\n      jump\t// in\n    tag_326:\n        /* \"#utility.yul\":11334:11336   */\n      0x20\n        /* \"#utility.yul\":11329:11332   */\n      dup3\n        /* \"#utility.yul\":11325:11337   */\n      add\n        /* \"#utility.yul\":11318:11337   */\n      swap1\n      pop\n        /* \"#utility.yul\":10977:11343   */\n      swap2\n      swap1\n      pop\n      jump\t// out\n        /* \"#utility.yul\":11349:11768   */\n    tag_76:\n        /* \"#utility.yul\":11515:11519   */\n      0x00\n        /* \"#utility.yul\":11553:11555   */\n      0x20\n        /* \"#utility.yul\":11542:11551   */\n      dup3\n        /* \"#utility.yul\":11538:11556   */\n      add\n        /* \"#utility.yul\":11530:11556   */\n      swap1\n      pop\n        /* \"#utility.yul\":11602:11611   */\n      dup2\n        /* \"#utility.yul\":11596:11600   */\n      dup2\n        /* \"#utility.yul\":11592:11612   */\n      sub\n        /* \"#utility.yul\":11588:11589   */\n      0x00\n        /* \"#utility.yul\":11577:11586   */\n      dup4\n        /* \"#utility.yul\":11573:11590   */\n      add\n        /* \"#utility.yul\":11566:11613   */\n      mstore\n        /* \"#utility.yul\":11630:11761   */\n      tag_328\n        /* \"#utility.yul\":11756:11760   */\n      dup2\n        /* \"#utility.yul\":11630:11761   */\n      tag_226\n      jump\t// in\n    tag_328:\n        /* \"#utility.yul\":11622:11761   */\n      swap1\n      pop\n        /* \"#utility.yul\":11349:11768   */\n      swap2\n      swap1\n      pop\n      jump\t// out\n        /* \"#utility.yul\":11774:11997   */\n    tag_227:\n        /* \"#utility.yul\":11914:11948   */\n      0x526563656976657220616c726561647920726571756573742076616c69646174\n        /* \"#utility.yul\":11910:11911   */\n      0x00\n        /* \"#utility.yul\":11902:11908   */\n      dup3\n        /* \"#utility.yul\":11898:11912   */\n      add\n        /* \"#utility.yul\":11891:11949   */\n      mstore\n        /* \"#utility.yul\":11983:11989   */\n      0x696f6e2100000000000000000000000000000000000000000000000000000000\n        /* \"#utility.yul\":11978:11980   */\n      0x20\n        /* \"#utility.yul\":11970:11976   */\n      dup3\n        /* \"#utility.yul\":11966:11981   */\n      add\n        /* \"#utility.yul\":11959:11990   */\n      mstore\n        /* \"#utility.yul\":11774:11997   */\n      pop\n      jump\t// out\n        /* \"#utility.yul\":12003:12369   */\n    tag_228:\n        /* \"#utility.yul\":12145:12148   */\n      0x00\n        /* \"#utility.yul\":12166:12233   */\n      tag_331\n        /* \"#utility.yul\":12230:12232   */\n      0x24\n        /* \"#utility.yul\":12225:12228   */\n      dup4\n        /* \"#utility.yul\":12166:12233   */\n      tag_216\n      jump\t// in\n    tag_331:\n        /* \"#utility.yul\":12159:12233   */\n      swap2\n      pop\n        /* \"#utility.yul\":12242:12335   */\n      tag_332\n        /* \"#utility.yul\":12331:12334   */\n      dup3\n        /* \"#utility.yul\":12242:12335   */\n      tag_227\n      jump\t// in\n    tag_332:\n        /* \"#utility.yul\":12360:12362   */\n      0x40\n        /* \"#utility.yul\":12355:12358   */\n      dup3\n        /* \"#utility.yul\":12351:12363   */\n      add\n        /* \"#utility.yul\":12344:12363   */\n      swap1\n      pop\n        /* \"#utility.yul\":12003:12369   */\n      swap2\n      swap1\n      pop\n      jump\t// out\n        /* \"#utility.yul\":12375:12794   */\n    tag_80:\n        /* \"#utility.yul\":12541:12545   */\n      0x00\n        /* \"#utility.yul\":12579:12581   */\n      0x20\n        /* \"#utility.yul\":12568:12577   */\n      dup3\n        /* \"#utility.yul\":12564:12582   */\n      add\n        /* \"#utility.yul\":12556:12582   */\n      swap1\n      pop\n        /* \"#utility.yul\":12628:12637   */\n      dup2\n        /* \"#utility.yul\":12622:12626   */\n      dup2\n        /* \"#utility.yul\":12618:12638   */\n      sub\n        /* \"#utility.yul\":12614:12615   */\n      0x00\n        /* \"#utility.yul\":12603:12612   */\n      dup4\n        /* \"#utility.yul\":12599:12616   */\n      add\n        /* \"#utility.yul\":12592:12639   */\n      mstore\n        /* \"#utility.yul\":12656:12787   */\n      tag_334\n        /* \"#utility.yul\":12782:12786   */\n      dup2\n        /* \"#utility.yul\":12656:12787   */\n      tag_228\n      jump\t// in\n    tag_334:\n        /* \"#utility.yul\":12648:12787   */\n      swap1\n      pop\n        /* \"#utility.yul\":12375:12794   */\n      swap2\n      swap1\n      pop\n      jump\t// out\n        /* \"#utility.yul\":12800:12980   */\n    tag_84:\n        /* \"#utility.yul\":12848:12925   */\n      0x4e487b7100000000000000000000000000000000000000000000000000000000\n        /* \"#utility.yul\":12845:12846   */\n      0x00\n        /* \"#utility.yul\":12838:12926   */\n      mstore\n        /* \"#utility.yul\":12945:12949   */\n      0x41\n        /* \"#utility.yul\":12942:12943   */\n      0x04\n        /* \"#utility.yul\":12935:12950   */\n      mstore\n        /* \"#utility.yul\":12969:12973   */\n      0x24\n        /* \"#utility.yul\":12966:12967   */\n      0x00\n        /* \"#utility.yul\":12959:12974   */\n      revert\n        /* \"#utility.yul\":12986:13166   */\n    tag_94:\n        /* \"#utility.yul\":13034:13111   */\n      0x4e487b7100000000000000000000000000000000000000000000000000000000\n        /* \"#utility.yul\":13031:13032   */\n      0x00\n        /* \"#utility.yul\":13024:13112   */\n      mstore\n        /* \"#utility.yul\":13131:13135   */\n      0x32\n        /* \"#utility.yul\":13128:13129   */\n      0x04\n        /* \"#utility.yul\":13121:13136   */\n      mstore\n        /* \"#utility.yul\":13155:13159   */\n      0x24\n        /* \"#utility.yul\":13152:13153   */\n      0x00\n        /* \"#utility.yul\":13145:13160   */\n      revert\n        /* \"#utility.yul\":13172:13363   */\n    tag_131:\n        /* \"#utility.yul\":13212:13216   */\n      0x00\n        /* \"#utility.yul\":13232:13252   */\n      tag_338\n        /* \"#utility.yul\":13250:13251   */\n      dup3\n        /* \"#utility.yul\":13232:13252   */\n      tag_190\n      jump\t// in\n    tag_338:\n        /* \"#utility.yul\":13227:13252   */\n      swap2\n      pop\n        /* \"#utility.yul\":13266:13286   */\n      tag_339\n        /* \"#utility.yul\":13284:13285   */\n      dup4\n        /* \"#utility.yul\":13266:13286   */\n      tag_190\n      jump\t// in\n    tag_339:\n        /* \"#utility.yul\":13261:13286   */\n      swap3\n      pop\n        /* \"#utility.yul\":13305:13306   */\n      dup3\n        /* \"#utility.yul\":13302:13303   */\n      dup3\n        /* \"#utility.yul\":13299:13307   */\n      lt\n        /* \"#utility.yul\":13296:13330   */\n      iszero\n      tag_340\n      jumpi\n        /* \"#utility.yul\":13310:13328   */\n      tag_341\n      tag_221\n      jump\t// in\n    tag_341:\n        /* \"#utility.yul\":13296:13330   */\n    tag_340:\n        /* \"#utility.yul\":13355:13356   */\n      dup3\n        /* \"#utility.yul\":13352:13353   */\n      dup3\n        /* \"#utility.yul\":13348:13357   */\n      sub\n        /* \"#utility.yul\":13340:13357   */\n      swap1\n      pop\n        /* \"#utility.yul\":13172:13363   */\n      swap3\n      swap2\n      pop\n      pop\n      jump\t// out\n        /* \"#utility.yul\":13369:13674   */\n    tag_133:\n        /* \"#utility.yul\":13409:13412   */\n      0x00\n        /* \"#utility.yul\":13428:13448   */\n      tag_343\n        /* \"#utility.yul\":13446:13447   */\n      dup3\n        /* \"#utility.yul\":13428:13448   */\n      tag_190\n      jump\t// in\n    tag_343:\n        /* \"#utility.yul\":13423:13448   */\n      swap2\n      pop\n        /* \"#utility.yul\":13462:13482   */\n      tag_344\n        /* \"#utility.yul\":13480:13481   */\n      dup4\n        /* \"#utility.yul\":13462:13482   */\n      tag_190\n      jump\t// in\n    tag_344:\n        /* \"#utility.yul\":13457:13482   */\n      swap3\n      pop\n        /* \"#utility.yul\":13616:13617   */\n      dup3\n        /* \"#utility.yul\":13548:13614   */\n      0xffffffffffffffffffffffffffffffffffffffffffffffffffffffffffffffff\n        /* \"#utility.yul\":13544:13618   */\n      sub\n        /* \"#utility.yul\":13541:13542   */\n      dup3\n        /* \"#utility.yul\":13538:13619   */\n      gt\n        /* \"#utility.yul\":13535:13642   */\n      iszero\n      tag_345\n      jumpi\n        /* \"#utility.yul\":13622:13640   */\n      tag_346\n      tag_221\n      jump\t// in\n    tag_346:\n        /* \"#utility.yul\":13535:13642   */\n    tag_345:\n        /* \"#utility.yul\":13666:13667   */\n      dup3\n        /* \"#utility.yul\":13663:13664   */\n      dup3\n        /* \"#utility.yul\":13659:13668   */\n      add\n        /* \"#utility.yul\":13652:13668   */\n      swap1\n      pop\n        /* \"#utility.yul\":13369:13674   */\n      swap3\n      swap2\n      pop\n      pop\n      jump\t// out\n        /* \"#utility.yul\":13680:13860   */\n    tag_143:\n        /* \"#utility.yul\":13728:13805   */\n      0x4e487b7100000000000000000000000000000000000000000000000000000000\n        /* \"#utility.yul\":13725:13726   */\n      0x00\n        /* \"#utility.yul\":13718:13806   */\n      mstore\n        /* \"#utility.yul\":13825:13829   */\n      0x31\n        /* \"#utility.yul\":13822:13823   */\n      0x04\n        /* \"#utility.yul\":13815:13830   */\n      mstore\n        /* \"#utility.yul\":13849:13853   */\n      0x24\n        /* \"#utility.yul\":13846:13847   */\n      0x00\n        /* \"#utility.yul\":13839:13854   */\n      revert\n        /* \"#utility.yul\":13866:14101   */\n    tag_229:\n        /* \"#utility.yul\":14006:14040   */\n      0x53656e64657220646964206e6f74207265717565737420796f75722077616c6c\n        /* \"#utility.yul\":14002:14003   */\n      0x00\n        /* \"#utility.yul\":13994:14000   */\n      dup3\n        /* \"#utility.yul\":13990:14004   */\n      add\n        /* \"#utility.yul\":13983:14041   */\n      mstore\n        /* \"#utility.yul\":14075:14093   */\n      0x657420766572696669636174696f6e2100000000000000000000000000000000\n        /* \"#utility.yul\":14070:14072   */\n      0x20\n        /* \"#utility.yul\":14062:14068   */\n      dup3\n        /* \"#utility.yul\":14058:14073   */\n      add\n        /* \"#utility.yul\":14051:14094   */\n      mstore\n        /* \"#utility.yul\":13866:14101   */\n      pop\n      jump\t// out\n        /* \"#utility.yul\":14107:14473   */\n    tag_230:\n        /* \"#utility.yul\":14249:14252   */\n      0x00\n        /* \"#utility.yul\":14270:14337   */\n      tag_350\n        /* \"#utility.yul\":14334:14336   */\n      0x30\n        /* \"#utility.yul\":14329:14332   */\n      dup4\n        /* \"#utility.yul\":14270:14337   */\n      tag_216\n      jump\t// in\n    tag_350:\n        /* \"#utility.yul\":14263:14337   */\n      swap2\n      pop\n        /* \"#utility.yul\":14346:14439   */\n      tag_351\n        /* \"#utility.yul\":14435:14438   */\n      dup3\n        /* \"#utility.yul\":14346:14439   */\n      tag_229\n      jump\t// in\n    tag_351:\n        /* \"#utility.yul\":14464:14466   */\n      0x40\n        /* \"#utility.yul\":14459:14462   */\n      dup3\n        /* \"#utility.yul\":14455:14467   */\n      add\n        /* \"#utility.yul\":14448:14467   */\n      swap1\n      pop\n        /* \"#utility.yul\":14107:14473   */\n      swap2\n      swap1\n      pop\n      jump\t// out\n        /* \"#utility.yul\":14479:14898   */\n    tag_154:\n        /* \"#utility.yul\":14645:14649   */\n      0x00\n        /* \"#utility.yul\":14683:14685   */\n      0x20\n        /* \"#utility.yul\":14672:14681   */\n      dup3\n        /* \"#utility.yul\":14668:14686   */\n      add\n        /* \"#utility.yul\":14660:14686   */\n      swap1\n      pop\n        /* \"#utility.yul\":14732:14741   */\n      dup2\n        /* \"#utility.yul\":14726:14730   */\n      dup2\n        /* \"#utility.yul\":14722:14742   */\n      sub\n        /* \"#utility.yul\":14718:14719   */\n      0x00\n        /* \"#utility.yul\":14707:14716   */\n      dup4\n        /* \"#utility.yul\":14703:14720   */\n      add\n        /* \"#utility.yul\":14696:14743   */\n      mstore\n        /* \"#utility.yul\":14760:14891   */\n      tag_353\n        /* \"#utility.yul\":14886:14890   */\n      dup2\n        /* \"#utility.yul\":14760:14891   */\n      tag_230\n      jump\t// in\n    tag_353:\n        /* \"#utility.yul\":14752:14891   */\n      swap1\n      pop\n        /* \"#utility.yul\":14479:14898   */\n      swap2\n      swap1\n      pop\n      jump\t// out\n\n    auxdata: 0xa2646970667358221220b003d3e6756318c6512b6d1efe781f4a2b47a317beec3914672f55fd454c66b464736f6c634300080d0033\n}\n","bytecode":{"linkReferences":{},"object":"608060405234801561001057600080fd5b506118c2806100206000396000f3fe6080604052600436106100865760003560e01c80639c6d55c3116100595780639c6d55c31461013a578063a33d84de14610156578063aeb97d5914610181578063be1f7419146101ac578063ea78f849146101e957610086565b80635f0802631461008b5780635f636573146100b65780637d6537c2146100d25780639b2fb458146100fd575b600080fd5b34801561009757600080fd5b506100a0610226565b6040516100ad9190611149565b60405180910390f35b6100d060048036038101906100cb91906111c7565b610275565b005b3480156100de57600080fd5b506100e76105f6565b6040516100f491906112fc565b60405180910390f35b34801561010957600080fd5b50610124600480360381019061011f91906111c7565b6107b9565b604051610131919061132d565b60405180910390f35b610154600480360381019061014f91906111c7565b6108a9565b005b34801561016257600080fd5b5061016b610cd7565b6040516101789190611149565b60405180910390f35b34801561018d57600080fd5b50610196610ce1565b6040516101a391906113f7565b60405180910390f35b3480156101b857600080fd5b506101d360048036038101906101ce91906111c7565b610db1565b6040516101e0919061132d565b60405180910390f35b3480156101f557600080fd5b50610210600480360381019061020b91906111c7565b610ecd565b60405161021d919061132d565b60405180910390f35b600080600160003373ffffffffffffffffffffffffffffffffffffffff1673ffffffffffffffffffffffffffffffffffffffff1681526020019081526020016000209050808054905091505090565b8073ffffffffffffffffffffffffffffffffffffffff163373ffffffffffffffffffffffffffffffffffffffff16036102e3576040517f08c379a00000000000000000000000000000000000000000000000000000000081526004016102da9061149c565b60405180910390fd5b60006102ee826107b9565b905060001515811515036105b0576000341161033f576040517f08c379a000000000000000000000000000000000000000000000000000000000815260040161033690611508565b60405180910390fd5b6000600160003373ffffffffffffffffffffffffffffffffffffffff1673ffffffffffffffffffffffffffffffffffffffff1681526020019081526020016000206001816001815401808255809150500390600052602060002001905060018060003373ffffffffffffffffffffffffffffffffffffffff1673ffffffffffffffffffffffffffffffffffffffff16815260200190815260200160002080549050036103fe57600360008154809291906103f890611557565b91905055505b828160000160006101000a81548173ffffffffffffffffffffffffffffffffffffffff021916908373ffffffffffffffffffffffffffffffffffffffff16021790555060008160000160146101000a81548160ff0219169083151502179055506000808473ffffffffffffffffffffffffffffffffffffffff1673ffffffffffffffffffffffffffffffffffffffff168152602001908152602001600020339080600181540180825580915050600190039060005260206000200160009091909190916101000a81548173ffffffffffffffffffffffffffffffffffffffff021916908373ffffffffffffffffffffffffffffffffffffffff16021790555060008373ffffffffffffffffffffffffffffffffffffffff1634604051610523906115d0565b60006040518083038185875af1925050503d8060008114610560576040519150601f19603f3d011682016040523d82523d6000602084013e610565565b606091505b50509050806105a9576040517f08c379a00000000000000000000000000000000000000000000000000000000081526004016105a090611631565b60405180910390fd5b50506105f2565b60006105f1576040517f08c379a00000000000000000000000000000000000000000000000000000000081526004016105e8906116c3565b60405180910390fd5b5b5050565b60606000600160003373ffffffffffffffffffffffffffffffffffffffff1673ffffffffffffffffffffffffffffffffffffffff16815260200190815260200160002080549050905060008167ffffffffffffffff81111561065b5761065a6116e3565b5b60405190808252806020026020018201604052801561069457816020015b6106816110fe565b8152602001906001900390816106795790505b50905060005b828110156107b0576000600160003373ffffffffffffffffffffffffffffffffffffffff1673ffffffffffffffffffffffffffffffffffffffff16815260200190815260200160002082815481106106f5576106f4611712565b5b906000526020600020019050806040518060400160405290816000820160009054906101000a900473ffffffffffffffffffffffffffffffffffffffff1673ffffffffffffffffffffffffffffffffffffffff1673ffffffffffffffffffffffffffffffffffffffff1681526020016000820160149054906101000a900460ff16151515158152505083838151811061079157610790611712565b5b60200260200101819052505080806107a890611557565b91505061069a565b50809250505090565b600080600160003373ffffffffffffffffffffffffffffffffffffffff1673ffffffffffffffffffffffffffffffffffffffff168152602001908152602001600020905060005b818054905081101561089d578373ffffffffffffffffffffffffffffffffffffffff1682828154811061083657610835611712565b5b9060005260206000200160000160009054906101000a900473ffffffffffffffffffffffffffffffffffffffff1673ffffffffffffffffffffffffffffffffffffffff160361088a576001925050506108a4565b808061089590611557565b915050610800565b5060009150505b919050565b60006108b482610f23565b90506001151581151503610c915760003411610905576040517f08c379a00000000000000000000000000000000000000000000000000000000081526004016108fc90611508565b60405180910390fd5b6000600160008473ffffffffffffffffffffffffffffffffffffffff1673ffffffffffffffffffffffffffffffffffffffff168152602001908152602001600020905060005b8180549050811015610a6f573373ffffffffffffffffffffffffffffffffffffffff1682828154811061098157610980611712565b5b9060005260206000200160000160009054906101000a900473ffffffffffffffffffffffffffffffffffffffff1673ffffffffffffffffffffffffffffffffffffffff1603610a5c5760018282815481106109df576109de611712565b5b9060005260206000200160000160146101000a81548160ff0219169083151502179055506001600260003373ffffffffffffffffffffffffffffffffffffffff1673ffffffffffffffffffffffffffffffffffffffff16815260200190815260200160002060006101000a81548160ff0219169083151502179055505b8080610a6790611557565b91505061094b565b5060008060003373ffffffffffffffffffffffffffffffffffffffff1673ffffffffffffffffffffffffffffffffffffffff16815260200190815260200160002090506000610abd85611013565b905060008190505b60018380549050610ad69190611741565b811015610b955782600182610aeb9190611775565b81548110610afc57610afb611712565b5b9060005260206000200160009054906101000a900473ffffffffffffffffffffffffffffffffffffffff16838281548110610b3a57610b39611712565b5b9060005260206000200160006101000a81548173ffffffffffffffffffffffffffffffffffffffff021916908373ffffffffffffffffffffffffffffffffffffffff1602179055508080610b8d90611557565b915050610ac5565b5081805480610ba757610ba66117cb565b5b6001900381819060005260206000200160006101000a81549073ffffffffffffffffffffffffffffffffffffffff0219169055905560008573ffffffffffffffffffffffffffffffffffffffff1634604051610c02906115d0565b60006040518083038185875af1925050503d8060008114610c3f576040519150601f19603f3d011682016040523d82523d6000602084013e610c44565b606091505b5050905080610c88576040517f08c379a0000000000000000000000000000000000000000000000000000000008152600401610c7f90611631565b60405180910390fd5b50505050610cd3565b6000610cd2576040517f08c379a0000000000000000000000000000000000000000000000000000000008152600401610cc99061186c565b60405180910390fd5b5b5050565b6000600354905090565b606060008060003373ffffffffffffffffffffffffffffffffffffffff1673ffffffffffffffffffffffffffffffffffffffff168152602001908152602001600020805480602002602001604051908101604052809291908181526020018280548015610da357602002820191906000526020600020905b8160009054906101000a900473ffffffffffffffffffffffffffffffffffffffff1673ffffffffffffffffffffffffffffffffffffffff1681526020019060010190808311610d59575b505050505090508091505090565b600080600160003373ffffffffffffffffffffffffffffffffffffffff1673ffffffffffffffffffffffffffffffffffffffff168152602001908152602001600020905060005b8180549050811015610ec1578373ffffffffffffffffffffffffffffffffffffffff16828281548110610e2e57610e2d611712565b5b9060005260206000200160000160009054906101000a900473ffffffffffffffffffffffffffffffffffffffff1673ffffffffffffffffffffffffffffffffffffffff1603610eae57818181548110610e8a57610e89611712565b5b9060005260206000200160000160149054906101000a900460ff1692505050610ec8565b8080610eb990611557565b915050610df8565b5060009150505b919050565b6000600260008373ffffffffffffffffffffffffffffffffffffffff1673ffffffffffffffffffffffffffffffffffffffff16815260200190815260200160002060009054906101000a900460ff169050919050565b600080600160008473ffffffffffffffffffffffffffffffffffffffff1673ffffffffffffffffffffffffffffffffffffffff168152602001908152602001600020905060005b8180549050811015611007573373ffffffffffffffffffffffffffffffffffffffff16828281548110610fa057610f9f611712565b5b9060005260206000200160000160009054906101000a900473ffffffffffffffffffffffffffffffffffffffff1673ffffffffffffffffffffffffffffffffffffffff1603610ff45760019250505061100e565b8080610fff90611557565b915050610f6a565b5060009150505b919050565b6000806000803373ffffffffffffffffffffffffffffffffffffffff1673ffffffffffffffffffffffffffffffffffffffff168152602001908152602001600020905060005b81805490508110156110f2578373ffffffffffffffffffffffffffffffffffffffff1682828154811061108f5761108e611712565b5b9060005260206000200160009054906101000a900473ffffffffffffffffffffffffffffffffffffffff1673ffffffffffffffffffffffffffffffffffffffff16036110df5780925050506110f9565b80806110ea90611557565b915050611059565b5060009150505b919050565b6040518060400160405280600073ffffffffffffffffffffffffffffffffffffffff1681526020016000151581525090565b6000819050919050565b61114381611130565b82525050565b600060208201905061115e600083018461113a565b92915050565b600080fd5b600073ffffffffffffffffffffffffffffffffffffffff82169050919050565b600061119482611169565b9050919050565b6111a481611189565b81146111af57600080fd5b50565b6000813590506111c18161119b565b92915050565b6000602082840312156111dd576111dc611164565b5b60006111eb848285016111b2565b91505092915050565b600081519050919050565b600082825260208201905092915050565b6000819050602082019050919050565b61122981611189565b82525050565b60008115159050919050565b6112448161122f565b82525050565b6040820160008201516112606000850182611220565b506020820151611273602085018261123b565b50505050565b6000611285838361124a565b60408301905092915050565b6000602082019050919050565b60006112a9826111f4565b6112b381856111ff565b93506112be83611210565b8060005b838110156112ef5781516112d68882611279565b97506112e183611291565b9250506001810190506112c2565b5085935050505092915050565b60006020820190508181036000830152611316818461129e565b905092915050565b6113278161122f565b82525050565b6000602082019050611342600083018461131e565b92915050565b600081519050919050565b600082825260208201905092915050565b6000819050602082019050919050565b60006113808383611220565b60208301905092915050565b6000602082019050919050565b60006113a482611348565b6113ae8185611353565b93506113b983611364565b8060005b838110156113ea5781516113d18882611374565b97506113dc8361138c565b9250506001810190506113bd565b5085935050505092915050565b600060208201905081810360008301526114118184611399565b905092915050565b600082825260208201905092915050565b7f596f752063616e6e6f2076616c696461746520796f7572206f776e2077616c6c60008201527f6574210000000000000000000000000000000000000000000000000000000000602082015250565b6000611486602383611419565b91506114918261142a565b604082019050919050565b600060208201905081810360008301526114b581611479565b9050919050565b7f4e6f206d6f6e657920746f206265207472616e73666572656421000000000000600082015250565b60006114f2601a83611419565b91506114fd826114bc565b602082019050919050565b60006020820190508181036000830152611521816114e5565b9050919050565b7f4e487b7100000000000000000000000000000000000000000000000000000000600052601160045260246000fd5b600061156282611130565b91507fffffffffffffffffffffffffffffffffffffffffffffffffffffffffffffffff820361159457611593611528565b5b600182019050919050565b600081905092915050565b50565b60006115ba60008361159f565b91506115c5826115aa565b600082019050919050565b60006115db826115ad565b9150819050919050565b7f5472616e73666572206661696c65642e00000000000000000000000000000000600082015250565b600061161b601083611419565b9150611626826115e5565b602082019050919050565b6000602082019050818103600083015261164a8161160e565b9050919050565b7f526563656976657220616c726561647920726571756573742076616c6964617460008201527f696f6e2100000000000000000000000000000000000000000000000000000000602082015250565b60006116ad602483611419565b91506116b882611651565b604082019050919050565b600060208201905081810360008301526116dc816116a0565b9050919050565b7f4e487b7100000000000000000000000000000000000000000000000000000000600052604160045260246000fd5b7f4e487b7100000000000000000000000000000000000000000000000000000000600052603260045260246000fd5b600061174c82611130565b915061175783611130565b92508282101561176a57611769611528565b5b828203905092915050565b600061178082611130565b915061178b83611130565b9250827fffffffffffffffffffffffffffffffffffffffffffffffffffffffffffffffff038211156117c0576117bf611528565b5b828201905092915050565b7f4e487b7100000000000000000000000000000000000000000000000000000000600052603160045260246000fd5b7f53656e64657220646964206e6f74207265717565737420796f75722077616c6c60008201527f657420766572696669636174696f6e2100000000000000000000000000000000602082015250565b6000611856603083611419565b9150611861826117fa565b604082019050919050565b6000602082019050818103600083015261188581611849565b905091905056fea2646970667358221220b003d3e6756318c6512b6d1efe781f4a2b47a317beec3914672f55fd454c66b464736f6c634300080d0033","opcodes":"PUSH1 0x80 PUSH1 0x40 MSTORE CALLVALUE DUP1 ISZERO PUSH2 0x10 JUMPI PUSH1 0x0 DUP1 REVERT JUMPDEST POP PUSH2 0x18C2 DUP1 PUSH2 0x20 PUSH1 0x0 CODECOPY PUSH1 0x0 RETURN INVALID PUSH1 0x80 PUSH1 0x40 MSTORE PUSH1 0x4 CALLDATASIZE LT PUSH2 0x86 JUMPI PUSH1 0x0 CALLDATALOAD PUSH1 0xE0 SHR DUP1 PUSH4 0x9C6D55C3 GT PUSH2 0x59 JUMPI DUP1 PUSH4 0x9C6D55C3 EQ PUSH2 0x13A JUMPI DUP1 PUSH4 0xA33D84DE EQ PUSH2 0x156 JUMPI DUP1 PUSH4 0xAEB97D59 EQ PUSH2 0x181 JUMPI DUP1 PUSH4 0xBE1F7419 EQ PUSH2 0x1AC JUMPI DUP1 PUSH4 0xEA78F849 EQ PUSH2 0x1E9 JUMPI PUSH2 0x86 JUMP JUMPDEST DUP1 PUSH4 0x5F080263 EQ PUSH2 0x8B JUMPI DUP1 PUSH4 0x5F636573 EQ PUSH2 0xB6 JUMPI DUP1 PUSH4 0x7D6537C2 EQ PUSH2 0xD2 JUMPI DUP1 PUSH4 0x9B2FB458 EQ PUSH2 0xFD JUMPI JUMPDEST PUSH1 0x0 DUP1 REVERT JUMPDEST CALLVALUE DUP1 ISZERO PUSH2 0x97 JUMPI PUSH1 0x0 DUP1 REVERT JUMPDEST POP PUSH2 0xA0 PUSH2 0x226 JUMP JUMPDEST PUSH1 0x40 MLOAD PUSH2 0xAD SWAP2 SWAP1 PUSH2 0x1149 JUMP JUMPDEST PUSH1 0x40 MLOAD DUP1 SWAP2 SUB SWAP1 RETURN JUMPDEST PUSH2 0xD0 PUSH1 0x4 DUP1 CALLDATASIZE SUB DUP2 ADD SWAP1 PUSH2 0xCB SWAP2 SWAP1 PUSH2 0x11C7 JUMP JUMPDEST PUSH2 0x275 JUMP JUMPDEST STOP JUMPDEST CALLVALUE DUP1 ISZERO PUSH2 0xDE JUMPI PUSH1 0x0 DUP1 REVERT JUMPDEST POP PUSH2 0xE7 PUSH2 0x5F6 JUMP JUMPDEST PUSH1 0x40 MLOAD PUSH2 0xF4 SWAP2 SWAP1 PUSH2 0x12FC JUMP JUMPDEST PUSH1 0x40 MLOAD DUP1 SWAP2 SUB SWAP1 RETURN JUMPDEST CALLVALUE DUP1 ISZERO PUSH2 0x109 JUMPI PUSH1 0x0 DUP1 REVERT JUMPDEST POP PUSH2 0x124 PUSH1 0x4 DUP1 CALLDATASIZE SUB DUP2 ADD SWAP1 PUSH2 0x11F SWAP2 SWAP1 PUSH2 0x11C7 JUMP JUMPDEST PUSH2 0x7B9 JUMP JUMPDEST PUSH1 0x40 MLOAD PUSH2 0x131 SWAP2 SWAP1 PUSH2 0x132D JUMP JUMPDEST PUSH1 0x40 MLOAD DUP1 SWAP2 SUB SWAP1 RETURN JUMPDEST PUSH2 0x154 PUSH1 0x4 DUP1 CALLDATASIZE SUB DUP2 ADD SWAP1 PUSH2 0x14F SWAP2 SWAP1 PUSH2 0x11C7 JUMP JUMPDEST PUSH2 0x8A9 JUMP JUMPDEST STOP JUMPDEST CALLVALUE DUP1 ISZERO PUSH2 0x162 JUMPI PUSH1 0x0 DUP1 REVERT JUMPDEST POP PUSH2 0x16B PUSH2 0xCD7 JUMP JUMPDEST PUSH1 0x40 MLOAD PUSH2 0x178 SWAP2 SWAP1 PUSH2 0x1149 JUMP JUMPDEST PUSH1 0x40 MLOAD DUP1 SWAP2 SUB SWAP1 RETURN JUMPDEST CALLVALUE DUP1 ISZERO PUSH2 0x18D JUMPI PUSH1 0x0 DUP1 REVERT JUMPDEST POP PUSH2 0x196 PUSH2 0xCE1 JUMP JUMPDEST PUSH1 0x40 MLOAD PUSH2 0x1A3 SWAP2 SWAP1 PUSH2 0x13F7 JUMP JUMPDEST PUSH1 0x40 MLOAD DUP1 SWAP2 SUB SWAP1 RETURN JUMPDEST CALLVALUE DUP1 ISZERO PUSH2 0x1B8 JUMPI PUSH1 0x0 DUP1 REVERT JUMPDEST POP PUSH2 0x1D3 PUSH1 0x4 DUP1 CALLDATASIZE SUB DUP2 ADD SWAP1 PUSH2 0x1CE SWAP2 SWAP1 PUSH2 0x11C7 JUMP JUMPDEST PUSH2 0xDB1 JUMP JUMPDEST PUSH1 0x40 MLOAD PUSH2 0x1E0 SWAP2 SWAP1 PUSH2 0x132D JUMP JUMPDEST PUSH1 0x40 MLOAD DUP1 SWAP2 SUB SWAP1 RETURN JUMPDEST CALLVALUE DUP1 ISZERO PUSH2 0x1F5 JUMPI PUSH1 0x0 DUP1 REVERT JUMPDEST POP PUSH2 0x210 PUSH1 0x4 DUP1 CALLDATASIZE SUB DUP2 ADD SWAP1 PUSH2 0x20B SWAP2 SWAP1 PUSH2 0x11C7 JUMP JUMPDEST PUSH2 0xECD JUMP JUMPDEST PUSH1 0x40 MLOAD PUSH2 0x21D SWAP2 SWAP1 PUSH2 0x132D JUMP JUMPDEST PUSH1 0x40 MLOAD DUP1 SWAP2 SUB SWAP1 RETURN JUMPDEST PUSH1 0x0 DUP1 PUSH1 0x1 PUSH1 0x0 CALLER PUSH20 0xFFFFFFFFFFFFFFFFFFFFFFFFFFFFFFFFFFFFFFFF AND PUSH20 0xFFFFFFFFFFFFFFFFFFFFFFFFFFFFFFFFFFFFFFFF AND DUP2 MSTORE PUSH1 0x20 ADD SWAP1 DUP2 MSTORE PUSH1 0x20 ADD PUSH1 0x0 KECCAK256 SWAP1 POP DUP1 DUP1 SLOAD SWAP1 POP SWAP2 POP POP SWAP1 JUMP JUMPDEST DUP1 PUSH20 0xFFFFFFFFFFFFFFFFFFFFFFFFFFFFFFFFFFFFFFFF AND CALLER PUSH20 0xFFFFFFFFFFFFFFFFFFFFFFFFFFFFFFFFFFFFFFFF AND SUB PUSH2 0x2E3 JUMPI PUSH1 0x40 MLOAD PUSH32 0x8C379A000000000000000000000000000000000000000000000000000000000 DUP2 MSTORE PUSH1 0x4 ADD PUSH2 0x2DA SWAP1 PUSH2 0x149C JUMP JUMPDEST PUSH1 0x40 MLOAD DUP1 SWAP2 SUB SWAP1 REVERT JUMPDEST PUSH1 0x0 PUSH2 0x2EE DUP3 PUSH2 0x7B9 JUMP JUMPDEST SWAP1 POP PUSH1 0x0 ISZERO ISZERO DUP2 ISZERO ISZERO SUB PUSH2 0x5B0 JUMPI PUSH1 0x0 CALLVALUE GT PUSH2 0x33F JUMPI PUSH1 0x40 MLOAD PUSH32 0x8C379A000000000000000000000000000000000000000000000000000000000 DUP2 MSTORE PUSH1 0x4 ADD PUSH2 0x336 SWAP1 PUSH2 0x1508 JUMP JUMPDEST PUSH1 0x40 MLOAD DUP1 SWAP2 SUB SWAP1 REVERT JUMPDEST PUSH1 0x0 PUSH1 0x1 PUSH1 0x0 CALLER PUSH20 0xFFFFFFFFFFFFFFFFFFFFFFFFFFFFFFFFFFFFFFFF AND PUSH20 0xFFFFFFFFFFFFFFFFFFFFFFFFFFFFFFFFFFFFFFFF AND DUP2 MSTORE PUSH1 0x20 ADD SWAP1 DUP2 MSTORE PUSH1 0x20 ADD PUSH1 0x0 KECCAK256 PUSH1 0x1 DUP2 PUSH1 0x1 DUP2 SLOAD ADD DUP1 DUP3 SSTORE DUP1 SWAP2 POP POP SUB SWAP1 PUSH1 0x0 MSTORE PUSH1 0x20 PUSH1 0x0 KECCAK256 ADD SWAP1 POP PUSH1 0x1 DUP1 PUSH1 0x0 CALLER PUSH20 0xFFFFFFFFFFFFFFFFFFFFFFFFFFFFFFFFFFFFFFFF AND PUSH20 0xFFFFFFFFFFFFFFFFFFFFFFFFFFFFFFFFFFFFFFFF AND DUP2 MSTORE PUSH1 0x20 ADD SWAP1 DUP2 MSTORE PUSH1 0x20 ADD PUSH1 0x0 KECCAK256 DUP1 SLOAD SWAP1 POP SUB PUSH2 0x3FE JUMPI PUSH1 0x3 PUSH1 0x0 DUP2 SLOAD DUP1 SWAP3 SWAP2 SWAP1 PUSH2 0x3F8 SWAP1 PUSH2 0x1557 JUMP JUMPDEST SWAP2 SWAP1 POP SSTORE POP JUMPDEST DUP3 DUP2 PUSH1 0x0 ADD PUSH1 0x0 PUSH2 0x100 EXP DUP2 SLOAD DUP2 PUSH20 0xFFFFFFFFFFFFFFFFFFFFFFFFFFFFFFFFFFFFFFFF MUL NOT AND SWAP1 DUP4 PUSH20 0xFFFFFFFFFFFFFFFFFFFFFFFFFFFFFFFFFFFFFFFF AND MUL OR SWAP1 SSTORE POP PUSH1 0x0 DUP2 PUSH1 0x0 ADD PUSH1 0x14 PUSH2 0x100 EXP DUP2 SLOAD DUP2 PUSH1 0xFF MUL NOT AND SWAP1 DUP4 ISZERO ISZERO MUL OR SWAP1 SSTORE POP PUSH1 0x0 DUP1 DUP5 PUSH20 0xFFFFFFFFFFFFFFFFFFFFFFFFFFFFFFFFFFFFFFFF AND PUSH20 0xFFFFFFFFFFFFFFFFFFFFFFFFFFFFFFFFFFFFFFFF AND DUP2 MSTORE PUSH1 0x20 ADD SWAP1 DUP2 MSTORE PUSH1 0x20 ADD PUSH1 0x0 KECCAK256 CALLER SWAP1 DUP1 PUSH1 0x1 DUP2 SLOAD ADD DUP1 DUP3 SSTORE DUP1 SWAP2 POP POP PUSH1 0x1 SWAP1 SUB SWAP1 PUSH1 0x0 MSTORE PUSH1 0x20 PUSH1 0x0 KECCAK256 ADD PUSH1 0x0 SWAP1 SWAP2 SWAP1 SWAP2 SWAP1 SWAP2 PUSH2 0x100 EXP DUP2 SLOAD DUP2 PUSH20 0xFFFFFFFFFFFFFFFFFFFFFFFFFFFFFFFFFFFFFFFF MUL NOT AND SWAP1 DUP4 PUSH20 0xFFFFFFFFFFFFFFFFFFFFFFFFFFFFFFFFFFFFFFFF AND MUL OR SWAP1 SSTORE POP PUSH1 0x0 DUP4 PUSH20 0xFFFFFFFFFFFFFFFFFFFFFFFFFFFFFFFFFFFFFFFF AND CALLVALUE PUSH1 0x40 MLOAD PUSH2 0x523 SWAP1 PUSH2 0x15D0 JUMP JUMPDEST PUSH1 0x0 PUSH1 0x40 MLOAD DUP1 DUP4 SUB DUP2 DUP6 DUP8 GAS CALL SWAP3 POP POP POP RETURNDATASIZE DUP1 PUSH1 0x0 DUP2 EQ PUSH2 0x560 JUMPI PUSH1 0x40 MLOAD SWAP2 POP PUSH1 0x1F NOT PUSH1 0x3F RETURNDATASIZE ADD AND DUP3 ADD PUSH1 0x40 MSTORE RETURNDATASIZE DUP3 MSTORE RETURNDATASIZE PUSH1 0x0 PUSH1 0x20 DUP5 ADD RETURNDATACOPY PUSH2 0x565 JUMP JUMPDEST PUSH1 0x60 SWAP2 POP JUMPDEST POP POP SWAP1 POP DUP1 PUSH2 0x5A9 JUMPI PUSH1 0x40 MLOAD PUSH32 0x8C379A000000000000000000000000000000000000000000000000000000000 DUP2 MSTORE PUSH1 0x4 ADD PUSH2 0x5A0 SWAP1 PUSH2 0x1631 JUMP JUMPDEST PUSH1 0x40 MLOAD DUP1 SWAP2 SUB SWAP1 REVERT JUMPDEST POP POP PUSH2 0x5F2 JUMP JUMPDEST PUSH1 0x0 PUSH2 0x5F1 JUMPI PUSH1 0x40 MLOAD PUSH32 0x8C379A000000000000000000000000000000000000000000000000000000000 DUP2 MSTORE PUSH1 0x4 ADD PUSH2 0x5E8 SWAP1 PUSH2 0x16C3 JUMP JUMPDEST PUSH1 0x40 MLOAD DUP1 SWAP2 SUB SWAP1 REVERT JUMPDEST JUMPDEST POP POP JUMP JUMPDEST PUSH1 0x60 PUSH1 0x0 PUSH1 0x1 PUSH1 0x0 CALLER PUSH20 0xFFFFFFFFFFFFFFFFFFFFFFFFFFFFFFFFFFFFFFFF AND PUSH20 0xFFFFFFFFFFFFFFFFFFFFFFFFFFFFFFFFFFFFFFFF AND DUP2 MSTORE PUSH1 0x20 ADD SWAP1 DUP2 MSTORE PUSH1 0x20 ADD PUSH1 0x0 KECCAK256 DUP1 SLOAD SWAP1 POP SWAP1 POP PUSH1 0x0 DUP2 PUSH8 0xFFFFFFFFFFFFFFFF DUP2 GT ISZERO PUSH2 0x65B JUMPI PUSH2 0x65A PUSH2 0x16E3 JUMP JUMPDEST JUMPDEST PUSH1 0x40 MLOAD SWAP1 DUP1 DUP3 MSTORE DUP1 PUSH1 0x20 MUL PUSH1 0x20 ADD DUP3 ADD PUSH1 0x40 MSTORE DUP1 ISZERO PUSH2 0x694 JUMPI DUP2 PUSH1 0x20 ADD JUMPDEST PUSH2 0x681 PUSH2 0x10FE JUMP JUMPDEST DUP2 MSTORE PUSH1 0x20 ADD SWAP1 PUSH1 0x1 SWAP1 SUB SWAP1 DUP2 PUSH2 0x679 JUMPI SWAP1 POP JUMPDEST POP SWAP1 POP PUSH1 0x0 JUMPDEST DUP3 DUP2 LT ISZERO PUSH2 0x7B0 JUMPI PUSH1 0x0 PUSH1 0x1 PUSH1 0x0 CALLER PUSH20 0xFFFFFFFFFFFFFFFFFFFFFFFFFFFFFFFFFFFFFFFF AND PUSH20 0xFFFFFFFFFFFFFFFFFFFFFFFFFFFFFFFFFFFFFFFF AND DUP2 MSTORE PUSH1 0x20 ADD SWAP1 DUP2 MSTORE PUSH1 0x20 ADD PUSH1 0x0 KECCAK256 DUP3 DUP2 SLOAD DUP2 LT PUSH2 0x6F5 JUMPI PUSH2 0x6F4 PUSH2 0x1712 JUMP JUMPDEST JUMPDEST SWAP1 PUSH1 0x0 MSTORE PUSH1 0x20 PUSH1 0x0 KECCAK256 ADD SWAP1 POP DUP1 PUSH1 0x40 MLOAD DUP1 PUSH1 0x40 ADD PUSH1 0x40 MSTORE SWAP1 DUP2 PUSH1 0x0 DUP3 ADD PUSH1 0x0 SWAP1 SLOAD SWAP1 PUSH2 0x100 EXP SWAP1 DIV PUSH20 0xFFFFFFFFFFFFFFFFFFFFFFFFFFFFFFFFFFFFFFFF AND PUSH20 0xFFFFFFFFFFFFFFFFFFFFFFFFFFFFFFFFFFFFFFFF AND PUSH20 0xFFFFFFFFFFFFFFFFFFFFFFFFFFFFFFFFFFFFFFFF AND DUP2 MSTORE PUSH1 0x20 ADD PUSH1 0x0 DUP3 ADD PUSH1 0x14 SWAP1 SLOAD SWAP1 PUSH2 0x100 EXP SWAP1 DIV PUSH1 0xFF AND ISZERO ISZERO ISZERO ISZERO DUP2 MSTORE POP POP DUP4 DUP4 DUP2 MLOAD DUP2 LT PUSH2 0x791 JUMPI PUSH2 0x790 PUSH2 0x1712 JUMP JUMPDEST JUMPDEST PUSH1 0x20 MUL PUSH1 0x20 ADD ADD DUP2 SWAP1 MSTORE POP POP DUP1 DUP1 PUSH2 0x7A8 SWAP1 PUSH2 0x1557 JUMP JUMPDEST SWAP2 POP POP PUSH2 0x69A JUMP JUMPDEST POP DUP1 SWAP3 POP POP POP SWAP1 JUMP JUMPDEST PUSH1 0x0 DUP1 PUSH1 0x1 PUSH1 0x0 CALLER PUSH20 0xFFFFFFFFFFFFFFFFFFFFFFFFFFFFFFFFFFFFFFFF AND PUSH20 0xFFFFFFFFFFFFFFFFFFFFFFFFFFFFFFFFFFFFFFFF AND DUP2 MSTORE PUSH1 0x20 ADD SWAP1 DUP2 MSTORE PUSH1 0x20 ADD PUSH1 0x0 KECCAK256 SWAP1 POP PUSH1 0x0 JUMPDEST DUP2 DUP1 SLOAD SWAP1 POP DUP2 LT ISZERO PUSH2 0x89D JUMPI DUP4 PUSH20 0xFFFFFFFFFFFFFFFFFFFFFFFFFFFFFFFFFFFFFFFF AND DUP3 DUP3 DUP2 SLOAD DUP2 LT PUSH2 0x836 JUMPI PUSH2 0x835 PUSH2 0x1712 JUMP JUMPDEST JUMPDEST SWAP1 PUSH1 0x0 MSTORE PUSH1 0x20 PUSH1 0x0 KECCAK256 ADD PUSH1 0x0 ADD PUSH1 0x0 SWAP1 SLOAD SWAP1 PUSH2 0x100 EXP SWAP1 DIV PUSH20 0xFFFFFFFFFFFFFFFFFFFFFFFFFFFFFFFFFFFFFFFF AND PUSH20 0xFFFFFFFFFFFFFFFFFFFFFFFFFFFFFFFFFFFFFFFF AND SUB PUSH2 0x88A JUMPI PUSH1 0x1 SWAP3 POP POP POP PUSH2 0x8A4 JUMP JUMPDEST DUP1 DUP1 PUSH2 0x895 SWAP1 PUSH2 0x1557 JUMP JUMPDEST SWAP2 POP POP PUSH2 0x800 JUMP JUMPDEST POP PUSH1 0x0 SWAP2 POP POP JUMPDEST SWAP2 SWAP1 POP JUMP JUMPDEST PUSH1 0x0 PUSH2 0x8B4 DUP3 PUSH2 0xF23 JUMP JUMPDEST SWAP1 POP PUSH1 0x1 ISZERO ISZERO DUP2 ISZERO ISZERO SUB PUSH2 0xC91 JUMPI PUSH1 0x0 CALLVALUE GT PUSH2 0x905 JUMPI PUSH1 0x40 MLOAD PUSH32 0x8C379A000000000000000000000000000000000000000000000000000000000 DUP2 MSTORE PUSH1 0x4 ADD PUSH2 0x8FC SWAP1 PUSH2 0x1508 JUMP JUMPDEST PUSH1 0x40 MLOAD DUP1 SWAP2 SUB SWAP1 REVERT JUMPDEST PUSH1 0x0 PUSH1 0x1 PUSH1 0x0 DUP5 PUSH20 0xFFFFFFFFFFFFFFFFFFFFFFFFFFFFFFFFFFFFFFFF AND PUSH20 0xFFFFFFFFFFFFFFFFFFFFFFFFFFFFFFFFFFFFFFFF AND DUP2 MSTORE PUSH1 0x20 ADD SWAP1 DUP2 MSTORE PUSH1 0x20 ADD PUSH1 0x0 KECCAK256 SWAP1 POP PUSH1 0x0 JUMPDEST DUP2 DUP1 SLOAD SWAP1 POP DUP2 LT ISZERO PUSH2 0xA6F JUMPI CALLER PUSH20 0xFFFFFFFFFFFFFFFFFFFFFFFFFFFFFFFFFFFFFFFF AND DUP3 DUP3 DUP2 SLOAD DUP2 LT PUSH2 0x981 JUMPI PUSH2 0x980 PUSH2 0x1712 JUMP JUMPDEST JUMPDEST SWAP1 PUSH1 0x0 MSTORE PUSH1 0x20 PUSH1 0x0 KECCAK256 ADD PUSH1 0x0 ADD PUSH1 0x0 SWAP1 SLOAD SWAP1 PUSH2 0x100 EXP SWAP1 DIV PUSH20 0xFFFFFFFFFFFFFFFFFFFFFFFFFFFFFFFFFFFFFFFF AND PUSH20 0xFFFFFFFFFFFFFFFFFFFFFFFFFFFFFFFFFFFFFFFF AND SUB PUSH2 0xA5C JUMPI PUSH1 0x1 DUP3 DUP3 DUP2 SLOAD DUP2 LT PUSH2 0x9DF JUMPI PUSH2 0x9DE PUSH2 0x1712 JUMP JUMPDEST JUMPDEST SWAP1 PUSH1 0x0 MSTORE PUSH1 0x20 PUSH1 0x0 KECCAK256 ADD PUSH1 0x0 ADD PUSH1 0x14 PUSH2 0x100 EXP DUP2 SLOAD DUP2 PUSH1 0xFF MUL NOT AND SWAP1 DUP4 ISZERO ISZERO MUL OR SWAP1 SSTORE POP PUSH1 0x1 PUSH1 0x2 PUSH1 0x0 CALLER PUSH20 0xFFFFFFFFFFFFFFFFFFFFFFFFFFFFFFFFFFFFFFFF AND PUSH20 0xFFFFFFFFFFFFFFFFFFFFFFFFFFFFFFFFFFFFFFFF AND DUP2 MSTORE PUSH1 0x20 ADD SWAP1 DUP2 MSTORE PUSH1 0x20 ADD PUSH1 0x0 KECCAK256 PUSH1 0x0 PUSH2 0x100 EXP DUP2 SLOAD DUP2 PUSH1 0xFF MUL NOT AND SWAP1 DUP4 ISZERO ISZERO MUL OR SWAP1 SSTORE POP JUMPDEST DUP1 DUP1 PUSH2 0xA67 SWAP1 PUSH2 0x1557 JUMP JUMPDEST SWAP2 POP POP PUSH2 0x94B JUMP JUMPDEST POP PUSH1 0x0 DUP1 PUSH1 0x0 CALLER PUSH20 0xFFFFFFFFFFFFFFFFFFFFFFFFFFFFFFFFFFFFFFFF AND PUSH20 0xFFFFFFFFFFFFFFFFFFFFFFFFFFFFFFFFFFFFFFFF AND DUP2 MSTORE PUSH1 0x20 ADD SWAP1 DUP2 MSTORE PUSH1 0x20 ADD PUSH1 0x0 KECCAK256 SWAP1 POP PUSH1 0x0 PUSH2 0xABD DUP6 PUSH2 0x1013 JUMP JUMPDEST SWAP1 POP PUSH1 0x0 DUP2 SWAP1 POP JUMPDEST PUSH1 0x1 DUP4 DUP1 SLOAD SWAP1 POP PUSH2 0xAD6 SWAP2 SWAP1 PUSH2 0x1741 JUMP JUMPDEST DUP2 LT ISZERO PUSH2 0xB95 JUMPI DUP3 PUSH1 0x1 DUP3 PUSH2 0xAEB SWAP2 SWAP1 PUSH2 0x1775 JUMP JUMPDEST DUP2 SLOAD DUP2 LT PUSH2 0xAFC JUMPI PUSH2 0xAFB PUSH2 0x1712 JUMP JUMPDEST JUMPDEST SWAP1 PUSH1 0x0 MSTORE PUSH1 0x20 PUSH1 0x0 KECCAK256 ADD PUSH1 0x0 SWAP1 SLOAD SWAP1 PUSH2 0x100 EXP SWAP1 DIV PUSH20 0xFFFFFFFFFFFFFFFFFFFFFFFFFFFFFFFFFFFFFFFF AND DUP4 DUP3 DUP2 SLOAD DUP2 LT PUSH2 0xB3A JUMPI PUSH2 0xB39 PUSH2 0x1712 JUMP JUMPDEST JUMPDEST SWAP1 PUSH1 0x0 MSTORE PUSH1 0x20 PUSH1 0x0 KECCAK256 ADD PUSH1 0x0 PUSH2 0x100 EXP DUP2 SLOAD DUP2 PUSH20 0xFFFFFFFFFFFFFFFFFFFFFFFFFFFFFFFFFFFFFFFF MUL NOT AND SWAP1 DUP4 PUSH20 0xFFFFFFFFFFFFFFFFFFFFFFFFFFFFFFFFFFFFFFFF AND MUL OR SWAP1 SSTORE POP DUP1 DUP1 PUSH2 0xB8D SWAP1 PUSH2 0x1557 JUMP JUMPDEST SWAP2 POP POP PUSH2 0xAC5 JUMP JUMPDEST POP DUP2 DUP1 SLOAD DUP1 PUSH2 0xBA7 JUMPI PUSH2 0xBA6 PUSH2 0x17CB JUMP JUMPDEST JUMPDEST PUSH1 0x1 SWAP1 SUB DUP2 DUP2 SWAP1 PUSH1 0x0 MSTORE PUSH1 0x20 PUSH1 0x0 KECCAK256 ADD PUSH1 0x0 PUSH2 0x100 EXP DUP2 SLOAD SWAP1 PUSH20 0xFFFFFFFFFFFFFFFFFFFFFFFFFFFFFFFFFFFFFFFF MUL NOT AND SWAP1 SSTORE SWAP1 SSTORE PUSH1 0x0 DUP6 PUSH20 0xFFFFFFFFFFFFFFFFFFFFFFFFFFFFFFFFFFFFFFFF AND CALLVALUE PUSH1 0x40 MLOAD PUSH2 0xC02 SWAP1 PUSH2 0x15D0 JUMP JUMPDEST PUSH1 0x0 PUSH1 0x40 MLOAD DUP1 DUP4 SUB DUP2 DUP6 DUP8 GAS CALL SWAP3 POP POP POP RETURNDATASIZE DUP1 PUSH1 0x0 DUP2 EQ PUSH2 0xC3F JUMPI PUSH1 0x40 MLOAD SWAP2 POP PUSH1 0x1F NOT PUSH1 0x3F RETURNDATASIZE ADD AND DUP3 ADD PUSH1 0x40 MSTORE RETURNDATASIZE DUP3 MSTORE RETURNDATASIZE PUSH1 0x0 PUSH1 0x20 DUP5 ADD RETURNDATACOPY PUSH2 0xC44 JUMP JUMPDEST PUSH1 0x60 SWAP2 POP JUMPDEST POP POP SWAP1 POP DUP1 PUSH2 0xC88 JUMPI PUSH1 0x40 MLOAD PUSH32 0x8C379A000000000000000000000000000000000000000000000000000000000 DUP2 MSTORE PUSH1 0x4 ADD PUSH2 0xC7F SWAP1 PUSH2 0x1631 JUMP JUMPDEST PUSH1 0x40 MLOAD DUP1 SWAP2 SUB SWAP1 REVERT JUMPDEST POP POP POP POP PUSH2 0xCD3 JUMP JUMPDEST PUSH1 0x0 PUSH2 0xCD2 JUMPI PUSH1 0x40 MLOAD PUSH32 0x8C379A000000000000000000000000000000000000000000000000000000000 DUP2 MSTORE PUSH1 0x4 ADD PUSH2 0xCC9 SWAP1 PUSH2 0x186C JUMP JUMPDEST PUSH1 0x40 MLOAD DUP1 SWAP2 SUB SWAP1 REVERT JUMPDEST JUMPDEST POP POP JUMP JUMPDEST PUSH1 0x0 PUSH1 0x3 SLOAD SWAP1 POP SWAP1 JUMP JUMPDEST PUSH1 0x60 PUSH1 0x0 DUP1 PUSH1 0x0 CALLER PUSH20 0xFFFFFFFFFFFFFFFFFFFFFFFFFFFFFFFFFFFFFFFF AND PUSH20 0xFFFFFFFFFFFFFFFFFFFFFFFFFFFFFFFFFFFFFFFF AND DUP2 MSTORE PUSH1 0x20 ADD SWAP1 DUP2 MSTORE PUSH1 0x20 ADD PUSH1 0x0 KECCAK256 DUP1 SLOAD DUP1 PUSH1 0x20 MUL PUSH1 0x20 ADD PUSH1 0x40 MLOAD SWAP1 DUP2 ADD PUSH1 0x40 MSTORE DUP1 SWAP3 SWAP2 SWAP1 DUP2 DUP2 MSTORE PUSH1 0x20 ADD DUP3 DUP1 SLOAD DUP1 ISZERO PUSH2 0xDA3 JUMPI PUSH1 0x20 MUL DUP3 ADD SWAP2 SWAP1 PUSH1 0x0 MSTORE PUSH1 0x20 PUSH1 0x0 KECCAK256 SWAP1 JUMPDEST DUP2 PUSH1 0x0 SWAP1 SLOAD SWAP1 PUSH2 0x100 EXP SWAP1 DIV PUSH20 0xFFFFFFFFFFFFFFFFFFFFFFFFFFFFFFFFFFFFFFFF AND PUSH20 0xFFFFFFFFFFFFFFFFFFFFFFFFFFFFFFFFFFFFFFFF AND DUP2 MSTORE PUSH1 0x20 ADD SWAP1 PUSH1 0x1 ADD SWAP1 DUP1 DUP4 GT PUSH2 0xD59 JUMPI JUMPDEST POP POP POP POP POP SWAP1 POP DUP1 SWAP2 POP POP SWAP1 JUMP JUMPDEST PUSH1 0x0 DUP1 PUSH1 0x1 PUSH1 0x0 CALLER PUSH20 0xFFFFFFFFFFFFFFFFFFFFFFFFFFFFFFFFFFFFFFFF AND PUSH20 0xFFFFFFFFFFFFFFFFFFFFFFFFFFFFFFFFFFFFFFFF AND DUP2 MSTORE PUSH1 0x20 ADD SWAP1 DUP2 MSTORE PUSH1 0x20 ADD PUSH1 0x0 KECCAK256 SWAP1 POP PUSH1 0x0 JUMPDEST DUP2 DUP1 SLOAD SWAP1 POP DUP2 LT ISZERO PUSH2 0xEC1 JUMPI DUP4 PUSH20 0xFFFFFFFFFFFFFFFFFFFFFFFFFFFFFFFFFFFFFFFF AND DUP3 DUP3 DUP2 SLOAD DUP2 LT PUSH2 0xE2E JUMPI PUSH2 0xE2D PUSH2 0x1712 JUMP JUMPDEST JUMPDEST SWAP1 PUSH1 0x0 MSTORE PUSH1 0x20 PUSH1 0x0 KECCAK256 ADD PUSH1 0x0 ADD PUSH1 0x0 SWAP1 SLOAD SWAP1 PUSH2 0x100 EXP SWAP1 DIV PUSH20 0xFFFFFFFFFFFFFFFFFFFFFFFFFFFFFFFFFFFFFFFF AND PUSH20 0xFFFFFFFFFFFFFFFFFFFFFFFFFFFFFFFFFFFFFFFF AND SUB PUSH2 0xEAE JUMPI DUP2 DUP2 DUP2 SLOAD DUP2 LT PUSH2 0xE8A JUMPI PUSH2 0xE89 PUSH2 0x1712 JUMP JUMPDEST JUMPDEST SWAP1 PUSH1 0x0 MSTORE PUSH1 0x20 PUSH1 0x0 KECCAK256 ADD PUSH1 0x0 ADD PUSH1 0x14 SWAP1 SLOAD SWAP1 PUSH2 0x100 EXP SWAP1 DIV PUSH1 0xFF AND SWAP3 POP POP POP PUSH2 0xEC8 JUMP JUMPDEST DUP1 DUP1 PUSH2 0xEB9 SWAP1 PUSH2 0x1557 JUMP JUMPDEST SWAP2 POP POP PUSH2 0xDF8 JUMP JUMPDEST POP PUSH1 0x0 SWAP2 POP POP JUMPDEST SWAP2 SWAP1 POP JUMP JUMPDEST PUSH1 0x0 PUSH1 0x2 PUSH1 0x0 DUP4 PUSH20 0xFFFFFFFFFFFFFFFFFFFFFFFFFFFFFFFFFFFFFFFF AND PUSH20 0xFFFFFFFFFFFFFFFFFFFFFFFFFFFFFFFFFFFFFFFF AND DUP2 MSTORE PUSH1 0x20 ADD SWAP1 DUP2 MSTORE PUSH1 0x20 ADD PUSH1 0x0 KECCAK256 PUSH1 0x0 SWAP1 SLOAD SWAP1 PUSH2 0x100 EXP SWAP1 DIV PUSH1 0xFF AND SWAP1 POP SWAP2 SWAP1 POP JUMP JUMPDEST PUSH1 0x0 DUP1 PUSH1 0x1 PUSH1 0x0 DUP5 PUSH20 0xFFFFFFFFFFFFFFFFFFFFFFFFFFFFFFFFFFFFFFFF AND PUSH20 0xFFFFFFFFFFFFFFFFFFFFFFFFFFFFFFFFFFFFFFFF AND DUP2 MSTORE PUSH1 0x20 ADD SWAP1 DUP2 MSTORE PUSH1 0x20 ADD PUSH1 0x0 KECCAK256 SWAP1 POP PUSH1 0x0 JUMPDEST DUP2 DUP1 SLOAD SWAP1 POP DUP2 LT ISZERO PUSH2 0x1007 JUMPI CALLER PUSH20 0xFFFFFFFFFFFFFFFFFFFFFFFFFFFFFFFFFFFFFFFF AND DUP3 DUP3 DUP2 SLOAD DUP2 LT PUSH2 0xFA0 JUMPI PUSH2 0xF9F PUSH2 0x1712 JUMP JUMPDEST JUMPDEST SWAP1 PUSH1 0x0 MSTORE PUSH1 0x20 PUSH1 0x0 KECCAK256 ADD PUSH1 0x0 ADD PUSH1 0x0 SWAP1 SLOAD SWAP1 PUSH2 0x100 EXP SWAP1 DIV PUSH20 0xFFFFFFFFFFFFFFFFFFFFFFFFFFFFFFFFFFFFFFFF AND PUSH20 0xFFFFFFFFFFFFFFFFFFFFFFFFFFFFFFFFFFFFFFFF AND SUB PUSH2 0xFF4 JUMPI PUSH1 0x1 SWAP3 POP POP POP PUSH2 0x100E JUMP JUMPDEST DUP1 DUP1 PUSH2 0xFFF SWAP1 PUSH2 0x1557 JUMP JUMPDEST SWAP2 POP POP PUSH2 0xF6A JUMP JUMPDEST POP PUSH1 0x0 SWAP2 POP POP JUMPDEST SWAP2 SWAP1 POP JUMP JUMPDEST PUSH1 0x0 DUP1 PUSH1 0x0 DUP1 CALLER PUSH20 0xFFFFFFFFFFFFFFFFFFFFFFFFFFFFFFFFFFFFFFFF AND PUSH20 0xFFFFFFFFFFFFFFFFFFFFFFFFFFFFFFFFFFFFFFFF AND DUP2 MSTORE PUSH1 0x20 ADD SWAP1 DUP2 MSTORE PUSH1 0x20 ADD PUSH1 0x0 KECCAK256 SWAP1 POP PUSH1 0x0 JUMPDEST DUP2 DUP1 SLOAD SWAP1 POP DUP2 LT ISZERO PUSH2 0x10F2 JUMPI DUP4 PUSH20 0xFFFFFFFFFFFFFFFFFFFFFFFFFFFFFFFFFFFFFFFF AND DUP3 DUP3 DUP2 SLOAD DUP2 LT PUSH2 0x108F JUMPI PUSH2 0x108E PUSH2 0x1712 JUMP JUMPDEST JUMPDEST SWAP1 PUSH1 0x0 MSTORE PUSH1 0x20 PUSH1 0x0 KECCAK256 ADD PUSH1 0x0 SWAP1 SLOAD SWAP1 PUSH2 0x100 EXP SWAP1 DIV PUSH20 0xFFFFFFFFFFFFFFFFFFFFFFFFFFFFFFFFFFFFFFFF AND PUSH20 0xFFFFFFFFFFFFFFFFFFFFFFFFFFFFFFFFFFFFFFFF AND SUB PUSH2 0x10DF JUMPI DUP1 SWAP3 POP POP POP PUSH2 0x10F9 JUMP JUMPDEST DUP1 DUP1 PUSH2 0x10EA SWAP1 PUSH2 0x1557 JUMP JUMPDEST SWAP2 POP POP PUSH2 0x1059 JUMP JUMPDEST POP PUSH1 0x0 SWAP2 POP POP JUMPDEST SWAP2 SWAP1 POP JUMP JUMPDEST PUSH1 0x40 MLOAD DUP1 PUSH1 0x40 ADD PUSH1 0x40 MSTORE DUP1 PUSH1 0x0 PUSH20 0xFFFFFFFFFFFFFFFFFFFFFFFFFFFFFFFFFFFFFFFF AND DUP2 MSTORE PUSH1 0x20 ADD PUSH1 0x0 ISZERO ISZERO DUP2 MSTORE POP SWAP1 JUMP JUMPDEST PUSH1 0x0 DUP2 SWAP1 POP SWAP2 SWAP1 POP JUMP JUMPDEST PUSH2 0x1143 DUP2 PUSH2 0x1130 JUMP JUMPDEST DUP3 MSTORE POP POP JUMP JUMPDEST PUSH1 0x0 PUSH1 0x20 DUP3 ADD SWAP1 POP PUSH2 0x115E PUSH1 0x0 DUP4 ADD DUP5 PUSH2 0x113A JUMP JUMPDEST SWAP3 SWAP2 POP POP JUMP JUMPDEST PUSH1 0x0 DUP1 REVERT JUMPDEST PUSH1 0x0 PUSH20 0xFFFFFFFFFFFFFFFFFFFFFFFFFFFFFFFFFFFFFFFF DUP3 AND SWAP1 POP SWAP2 SWAP1 POP JUMP JUMPDEST PUSH1 0x0 PUSH2 0x1194 DUP3 PUSH2 0x1169 JUMP JUMPDEST SWAP1 POP SWAP2 SWAP1 POP JUMP JUMPDEST PUSH2 0x11A4 DUP2 PUSH2 0x1189 JUMP JUMPDEST DUP2 EQ PUSH2 0x11AF JUMPI PUSH1 0x0 DUP1 REVERT JUMPDEST POP JUMP JUMPDEST PUSH1 0x0 DUP2 CALLDATALOAD SWAP1 POP PUSH2 0x11C1 DUP2 PUSH2 0x119B JUMP JUMPDEST SWAP3 SWAP2 POP POP JUMP JUMPDEST PUSH1 0x0 PUSH1 0x20 DUP3 DUP5 SUB SLT ISZERO PUSH2 0x11DD JUMPI PUSH2 0x11DC PUSH2 0x1164 JUMP JUMPDEST JUMPDEST PUSH1 0x0 PUSH2 0x11EB DUP5 DUP3 DUP6 ADD PUSH2 0x11B2 JUMP JUMPDEST SWAP2 POP POP SWAP3 SWAP2 POP POP JUMP JUMPDEST PUSH1 0x0 DUP2 MLOAD SWAP1 POP SWAP2 SWAP1 POP JUMP JUMPDEST PUSH1 0x0 DUP3 DUP3 MSTORE PUSH1 0x20 DUP3 ADD SWAP1 POP SWAP3 SWAP2 POP POP JUMP JUMPDEST PUSH1 0x0 DUP2 SWAP1 POP PUSH1 0x20 DUP3 ADD SWAP1 POP SWAP2 SWAP1 POP JUMP JUMPDEST PUSH2 0x1229 DUP2 PUSH2 0x1189 JUMP JUMPDEST DUP3 MSTORE POP POP JUMP JUMPDEST PUSH1 0x0 DUP2 ISZERO ISZERO SWAP1 POP SWAP2 SWAP1 POP JUMP JUMPDEST PUSH2 0x1244 DUP2 PUSH2 0x122F JUMP JUMPDEST DUP3 MSTORE POP POP JUMP JUMPDEST PUSH1 0x40 DUP3 ADD PUSH1 0x0 DUP3 ADD MLOAD PUSH2 0x1260 PUSH1 0x0 DUP6 ADD DUP3 PUSH2 0x1220 JUMP JUMPDEST POP PUSH1 0x20 DUP3 ADD MLOAD PUSH2 0x1273 PUSH1 0x20 DUP6 ADD DUP3 PUSH2 0x123B JUMP JUMPDEST POP POP POP POP JUMP JUMPDEST PUSH1 0x0 PUSH2 0x1285 DUP4 DUP4 PUSH2 0x124A JUMP JUMPDEST PUSH1 0x40 DUP4 ADD SWAP1 POP SWAP3 SWAP2 POP POP JUMP JUMPDEST PUSH1 0x0 PUSH1 0x20 DUP3 ADD SWAP1 POP SWAP2 SWAP1 POP JUMP JUMPDEST PUSH1 0x0 PUSH2 0x12A9 DUP3 PUSH2 0x11F4 JUMP JUMPDEST PUSH2 0x12B3 DUP2 DUP6 PUSH2 0x11FF JUMP JUMPDEST SWAP4 POP PUSH2 0x12BE DUP4 PUSH2 0x1210 JUMP JUMPDEST DUP1 PUSH1 0x0 JUMPDEST DUP4 DUP2 LT ISZERO PUSH2 0x12EF JUMPI DUP2 MLOAD PUSH2 0x12D6 DUP9 DUP3 PUSH2 0x1279 JUMP JUMPDEST SWAP8 POP PUSH2 0x12E1 DUP4 PUSH2 0x1291 JUMP JUMPDEST SWAP3 POP POP PUSH1 0x1 DUP2 ADD SWAP1 POP PUSH2 0x12C2 JUMP JUMPDEST POP DUP6 SWAP4 POP POP POP POP SWAP3 SWAP2 POP POP JUMP JUMPDEST PUSH1 0x0 PUSH1 0x20 DUP3 ADD SWAP1 POP DUP2 DUP2 SUB PUSH1 0x0 DUP4 ADD MSTORE PUSH2 0x1316 DUP2 DUP5 PUSH2 0x129E JUMP JUMPDEST SWAP1 POP SWAP3 SWAP2 POP POP JUMP JUMPDEST PUSH2 0x1327 DUP2 PUSH2 0x122F JUMP JUMPDEST DUP3 MSTORE POP POP JUMP JUMPDEST PUSH1 0x0 PUSH1 0x20 DUP3 ADD SWAP1 POP PUSH2 0x1342 PUSH1 0x0 DUP4 ADD DUP5 PUSH2 0x131E JUMP JUMPDEST SWAP3 SWAP2 POP POP JUMP JUMPDEST PUSH1 0x0 DUP2 MLOAD SWAP1 POP SWAP2 SWAP1 POP JUMP JUMPDEST PUSH1 0x0 DUP3 DUP3 MSTORE PUSH1 0x20 DUP3 ADD SWAP1 POP SWAP3 SWAP2 POP POP JUMP JUMPDEST PUSH1 0x0 DUP2 SWAP1 POP PUSH1 0x20 DUP3 ADD SWAP1 POP SWAP2 SWAP1 POP JUMP JUMPDEST PUSH1 0x0 PUSH2 0x1380 DUP4 DUP4 PUSH2 0x1220 JUMP JUMPDEST PUSH1 0x20 DUP4 ADD SWAP1 POP SWAP3 SWAP2 POP POP JUMP JUMPDEST PUSH1 0x0 PUSH1 0x20 DUP3 ADD SWAP1 POP SWAP2 SWAP1 POP JUMP JUMPDEST PUSH1 0x0 PUSH2 0x13A4 DUP3 PUSH2 0x1348 JUMP JUMPDEST PUSH2 0x13AE DUP2 DUP6 PUSH2 0x1353 JUMP JUMPDEST SWAP4 POP PUSH2 0x13B9 DUP4 PUSH2 0x1364 JUMP JUMPDEST DUP1 PUSH1 0x0 JUMPDEST DUP4 DUP2 LT ISZERO PUSH2 0x13EA JUMPI DUP2 MLOAD PUSH2 0x13D1 DUP9 DUP3 PUSH2 0x1374 JUMP JUMPDEST SWAP8 POP PUSH2 0x13DC DUP4 PUSH2 0x138C JUMP JUMPDEST SWAP3 POP POP PUSH1 0x1 DUP2 ADD SWAP1 POP PUSH2 0x13BD JUMP JUMPDEST POP DUP6 SWAP4 POP POP POP POP SWAP3 SWAP2 POP POP JUMP JUMPDEST PUSH1 0x0 PUSH1 0x20 DUP3 ADD SWAP1 POP DUP2 DUP2 SUB PUSH1 0x0 DUP4 ADD MSTORE PUSH2 0x1411 DUP2 DUP5 PUSH2 0x1399 JUMP JUMPDEST SWAP1 POP SWAP3 SWAP2 POP POP JUMP JUMPDEST PUSH1 0x0 DUP3 DUP3 MSTORE PUSH1 0x20 DUP3 ADD SWAP1 POP SWAP3 SWAP2 POP POP JUMP JUMPDEST PUSH32 0x596F752063616E6E6F2076616C696461746520796F7572206F776E2077616C6C PUSH1 0x0 DUP3 ADD MSTORE PUSH32 0x6574210000000000000000000000000000000000000000000000000000000000 PUSH1 0x20 DUP3 ADD MSTORE POP JUMP JUMPDEST PUSH1 0x0 PUSH2 0x1486 PUSH1 0x23 DUP4 PUSH2 0x1419 JUMP JUMPDEST SWAP2 POP PUSH2 0x1491 DUP3 PUSH2 0x142A JUMP JUMPDEST PUSH1 0x40 DUP3 ADD SWAP1 POP SWAP2 SWAP1 POP JUMP JUMPDEST PUSH1 0x0 PUSH1 0x20 DUP3 ADD SWAP1 POP DUP2 DUP2 SUB PUSH1 0x0 DUP4 ADD MSTORE PUSH2 0x14B5 DUP2 PUSH2 0x1479 JUMP JUMPDEST SWAP1 POP SWAP2 SWAP1 POP JUMP JUMPDEST PUSH32 0x4E6F206D6F6E657920746F206265207472616E73666572656421000000000000 PUSH1 0x0 DUP3 ADD MSTORE POP JUMP JUMPDEST PUSH1 0x0 PUSH2 0x14F2 PUSH1 0x1A DUP4 PUSH2 0x1419 JUMP JUMPDEST SWAP2 POP PUSH2 0x14FD DUP3 PUSH2 0x14BC JUMP JUMPDEST PUSH1 0x20 DUP3 ADD SWAP1 POP SWAP2 SWAP1 POP JUMP JUMPDEST PUSH1 0x0 PUSH1 0x20 DUP3 ADD SWAP1 POP DUP2 DUP2 SUB PUSH1 0x0 DUP4 ADD MSTORE PUSH2 0x1521 DUP2 PUSH2 0x14E5 JUMP JUMPDEST SWAP1 POP SWAP2 SWAP1 POP JUMP JUMPDEST PUSH32 0x4E487B7100000000000000000000000000000000000000000000000000000000 PUSH1 0x0 MSTORE PUSH1 0x11 PUSH1 0x4 MSTORE PUSH1 0x24 PUSH1 0x0 REVERT JUMPDEST PUSH1 0x0 PUSH2 0x1562 DUP3 PUSH2 0x1130 JUMP JUMPDEST SWAP2 POP PUSH32 0xFFFFFFFFFFFFFFFFFFFFFFFFFFFFFFFFFFFFFFFFFFFFFFFFFFFFFFFFFFFFFFFF DUP3 SUB PUSH2 0x1594 JUMPI PUSH2 0x1593 PUSH2 0x1528 JUMP JUMPDEST JUMPDEST PUSH1 0x1 DUP3 ADD SWAP1 POP SWAP2 SWAP1 POP JUMP JUMPDEST PUSH1 0x0 DUP2 SWAP1 POP SWAP3 SWAP2 POP POP JUMP JUMPDEST POP JUMP JUMPDEST PUSH1 0x0 PUSH2 0x15BA PUSH1 0x0 DUP4 PUSH2 0x159F JUMP JUMPDEST SWAP2 POP PUSH2 0x15C5 DUP3 PUSH2 0x15AA JUMP JUMPDEST PUSH1 0x0 DUP3 ADD SWAP1 POP SWAP2 SWAP1 POP JUMP JUMPDEST PUSH1 0x0 PUSH2 0x15DB DUP3 PUSH2 0x15AD JUMP JUMPDEST SWAP2 POP DUP2 SWAP1 POP SWAP2 SWAP1 POP JUMP JUMPDEST PUSH32 0x5472616E73666572206661696C65642E00000000000000000000000000000000 PUSH1 0x0 DUP3 ADD MSTORE POP JUMP JUMPDEST PUSH1 0x0 PUSH2 0x161B PUSH1 0x10 DUP4 PUSH2 0x1419 JUMP JUMPDEST SWAP2 POP PUSH2 0x1626 DUP3 PUSH2 0x15E5 JUMP JUMPDEST PUSH1 0x20 DUP3 ADD SWAP1 POP SWAP2 SWAP1 POP JUMP JUMPDEST PUSH1 0x0 PUSH1 0x20 DUP3 ADD SWAP1 POP DUP2 DUP2 SUB PUSH1 0x0 DUP4 ADD MSTORE PUSH2 0x164A DUP2 PUSH2 0x160E JUMP JUMPDEST SWAP1 POP SWAP2 SWAP1 POP JUMP JUMPDEST PUSH32 0x526563656976657220616C726561647920726571756573742076616C69646174 PUSH1 0x0 DUP3 ADD MSTORE PUSH32 0x696F6E2100000000000000000000000000000000000000000000000000000000 PUSH1 0x20 DUP3 ADD MSTORE POP JUMP JUMPDEST PUSH1 0x0 PUSH2 0x16AD PUSH1 0x24 DUP4 PUSH2 0x1419 JUMP JUMPDEST SWAP2 POP PUSH2 0x16B8 DUP3 PUSH2 0x1651 JUMP JUMPDEST PUSH1 0x40 DUP3 ADD SWAP1 POP SWAP2 SWAP1 POP JUMP JUMPDEST PUSH1 0x0 PUSH1 0x20 DUP3 ADD SWAP1 POP DUP2 DUP2 SUB PUSH1 0x0 DUP4 ADD MSTORE PUSH2 0x16DC DUP2 PUSH2 0x16A0 JUMP JUMPDEST SWAP1 POP SWAP2 SWAP1 POP JUMP JUMPDEST PUSH32 0x4E487B7100000000000000000000000000000000000000000000000000000000 PUSH1 0x0 MSTORE PUSH1 0x41 PUSH1 0x4 MSTORE PUSH1 0x24 PUSH1 0x0 REVERT JUMPDEST PUSH32 0x4E487B7100000000000000000000000000000000000000000000000000000000 PUSH1 0x0 MSTORE PUSH1 0x32 PUSH1 0x4 MSTORE PUSH1 0x24 PUSH1 0x0 REVERT JUMPDEST PUSH1 0x0 PUSH2 0x174C DUP3 PUSH2 0x1130 JUMP JUMPDEST SWAP2 POP PUSH2 0x1757 DUP4 PUSH2 0x1130 JUMP JUMPDEST SWAP3 POP DUP3 DUP3 LT ISZERO PUSH2 0x176A JUMPI PUSH2 0x1769 PUSH2 0x1528 JUMP JUMPDEST JUMPDEST DUP3 DUP3 SUB SWAP1 POP SWAP3 SWAP2 POP POP JUMP JUMPDEST PUSH1 0x0 PUSH2 0x1780 DUP3 PUSH2 0x1130 JUMP JUMPDEST SWAP2 POP PUSH2 0x178B DUP4 PUSH2 0x1130 JUMP JUMPDEST SWAP3 POP DUP3 PUSH32 0xFFFFFFFFFFFFFFFFFFFFFFFFFFFFFFFFFFFFFFFFFFFFFFFFFFFFFFFFFFFFFFFF SUB DUP3 GT ISZERO PUSH2 0x17C0 JUMPI PUSH2 0x17BF PUSH2 0x1528 JUMP JUMPDEST JUMPDEST DUP3 DUP3 ADD SWAP1 POP SWAP3 SWAP2 POP POP JUMP JUMPDEST PUSH32 0x4E487B7100000000000000000000000000000000000000000000000000000000 PUSH1 0x0 MSTORE PUSH1 0x31 PUSH1 0x4 MSTORE PUSH1 0x24 PUSH1 0x0 REVERT JUMPDEST PUSH32 0x53656E64657220646964206E6F74207265717565737420796F75722077616C6C PUSH1 0x0 DUP3 ADD MSTORE PUSH32 0x657420766572696669636174696F6E2100000000000000000000000000000000 PUSH1 0x20 DUP3 ADD MSTORE POP JUMP JUMPDEST PUSH1 0x0 PUSH2 0x1856 PUSH1 0x30 DUP4 PUSH2 0x1419 JUMP JUMPDEST SWAP2 POP PUSH2 0x1861 DUP3 PUSH2 0x17FA JUMP JUMPDEST PUSH1 0x40 DUP3 ADD SWAP1 POP SWAP2 SWAP1 POP JUMP JUMPDEST PUSH1 0x0 PUSH1 0x20 DUP3 ADD SWAP1 POP DUP2 DUP2 SUB PUSH1 0x0 DUP4 ADD MSTORE PUSH2 0x1885 DUP2 PUSH2 0x1849 JUMP JUMPDEST SWAP1 POP SWAP2 SWAP1 POP JUMP INVALID LOG2 PUSH5 0x6970667358 0x22 SLT KECCAK256 0xB0 SUB 0xD3 0xE6 PUSH22 0x6318C6512B6D1EFE781F4A2B47A317BEEC3914672F55 REVERT GASLIMIT 0x4C PUSH7 0xB464736F6C6343 STOP ADDMOD 0xD STOP CALLER "},"gasEstimates":{"creation":{"codeDepositCost":"1267600","executionCost":"1322","totalCost":"1268922"},"external":{"getReceiversBySender()":"infinite","receiverExists(address)":"infinite","receiversCountBySender()":"2548","sendersCount()":"2459","sendersWaitingByReceiver()":"infinite","step1(address)":"infinite","step2(address)":"infinite","walletAlreadyValidated(address)":"2971","walletValidatedBySender(address)":"infinite"},"internal":{"senderExists(address)":"infinite","waitReceiverIndex(address)":"infinite"}},"methodIdentifiers":{"getReceiversBySender()":"7d6537c2","receiverExists(address)":"9b2fb458","receiversCountBySender()":"5f080263","sendersCount()":"a33d84de","sendersWaitingByReceiver()":"aeb97d59","step1(address)":"5f636573","step2(address)":"9c6d55c3","walletAlreadyValidated(address)":"ea78f849","walletValidatedBySender(address)":"be1f7419"}},"storageLayout":{"storage":[{"astId":15,"contract":"WalletValidator.sol:WalletValidator","label":"waitReceive","offset":0,"slot":"0","type":"t_mapping(t_address,t_array(t_address)dyn_storage)"},{"astId":22,"contract":"WalletValidator.sol:WalletValidator","label":"senders","offset":0,"slot":"1","type":"t_mapping(t_address,t_array(t_struct(Receiver)9_storage)dyn_storage)"},{"astId":27,"contract":"WalletValidator.sol:WalletValidator","label":"addressValidated","offset":0,"slot":"2","type":"t_mapping(t_address,t_bool)"},{"astId":30,"contract":"WalletValidator.sol:WalletValidator","label":"totalSenders","offset":0,"slot":"3","type":"t_uint256"}],"types":{"t_address":{"encoding":"inplace","label":"address","numberOfBytes":"20"},"t_array(t_address)dyn_storage":{"base":"t_address","encoding":"dynamic_array","label":"address[]","numberOfBytes":"32"},"t_array(t_struct(Receiver)9_storage)dyn_storage":{"base":"t_struct(Receiver)9_storage","encoding":"dynamic_array","label":"struct WalletValidator.Receiver[]","numberOfBytes":"32"},"t_bool":{"encoding":"inplace","label":"bool","numberOfBytes":"1"},"t_mapping(t_address,t_array(t_address)dyn_storage)":{"encoding":"mapping","key":"t_address","label":"mapping(address => address[])","numberOfBytes":"32","value":"t_array(t_address)dyn_storage"},"t_mapping(t_address,t_array(t_struct(Receiver)9_storage)dyn_storage)":{"encoding":"mapping","key":"t_address","label":"mapping(address => struct WalletValidator.Receiver[])","numberOfBytes":"32","value":"t_array(t_struct(Receiver)9_storage)dyn_storage"},"t_mapping(t_address,t_bool)":{"encoding":"mapping","key":"t_address","label":"mapping(address => bool)","numberOfBytes":"32","value":"t_bool"},"t_struct(Receiver)9_storage":{"encoding":"inplace","label":"struct WalletValidator.Receiver","members":[{"astId":5,"contract":"WalletValidator.sol:WalletValidator","label":"receiver","offset":0,"slot":"0","type":"t_address"},{"astId":8,"contract":"WalletValidator.sol:WalletValidator","label":"validated","offset":20,"slot":"0","type":"t_bool"}],"numberOfBytes":"32"},"t_uint256":{"encoding":"inplace","label":"uint256","numberOfBytes":"32"}}},"userdoc":{"kind":"user","methods":{"getReceiversBySender()":{"notice":"Retrieve the list of receiver’s address with the status"},"receiverExists(address)":{"notice":"Verify if the receiver’s belongs to the sender list"},"receiversCountBySender()":{"notice":"Result the total receiver's added by sender"},"sendersCount()":{"notice":"Result the total sender’s that used the smart contract"},"sendersWaitingByReceiver()":{"notice":"Retrieve the list of sender’s address waiting the validation by receiver"},"step1(address)":{"notice":"Receives money from the sender’s wallet and transfers it to the receiver’s wallet address"},"step2(address)":{"notice":"Send money from the receiver’s wallet back to the sender’s wallet address to confirm the flow"},"walletAlreadyValidated(address)":{"notice":"Return if a receiver’s address wallet was already validated by any sender"},"walletValidatedBySender(address)":{"notice":"Return if a receiver’s address wallet was already validated by the sender"}},"version":1}}